{
	"Votting.sol": {
		"VotingSystem": {
			"abi": [
				{
					"anonymous": false,
					"inputs": [
						{
							"indexed": true,
							"internalType": "uint256",
							"name": "candidateId",
							"type": "uint256"
						},
						{
							"indexed": false,
							"internalType": "string",
							"name": "name",
							"type": "string"
						}
					],
					"name": "CandidateAdded",
					"type": "event"
				},
				{
					"anonymous": false,
					"inputs": [
						{
							"indexed": true,
							"internalType": "address",
							"name": "previousOwner",
							"type": "address"
						},
						{
							"indexed": true,
							"internalType": "address",
							"name": "newOwner",
							"type": "address"
						}
					],
					"name": "OwnershipTransfered",
					"type": "event"
				},
				{
					"anonymous": false,
					"inputs": [
						{
							"indexed": true,
							"internalType": "address",
							"name": "voter",
							"type": "address"
						},
						{
							"indexed": true,
							"internalType": "uint256",
							"name": "candidateId",
							"type": "uint256"
						}
					],
					"name": "VoteCast",
					"type": "event"
				},
				{
					"inputs": [
						{
							"internalType": "string",
							"name": "_name",
							"type": "string"
						}
					],
					"name": "addCandidate",
					"outputs": [],
					"stateMutability": "nonpayable",
					"type": "function"
				},
				{
					"inputs": [
						{
							"internalType": "uint256",
							"name": "",
							"type": "uint256"
						}
					],
					"name": "candidates",
					"outputs": [
						{
							"internalType": "uint256",
							"name": "id",
							"type": "uint256"
						},
						{
							"internalType": "string",
							"name": "name",
							"type": "string"
						},
						{
							"internalType": "uint256",
							"name": "voteCount",
							"type": "uint256"
						}
					],
					"stateMutability": "view",
					"type": "function"
				},
				{
					"inputs": [],
					"name": "candidatesCount",
					"outputs": [
						{
							"internalType": "uint256",
							"name": "",
							"type": "uint256"
						}
					],
					"stateMutability": "view",
					"type": "function"
				},
				{
					"inputs": [
						{
							"internalType": "uint256",
							"name": "_candidateId",
							"type": "uint256"
						}
					],
					"name": "getCandidate",
					"outputs": [
						{
							"internalType": "string",
							"name": "name",
							"type": "string"
						},
						{
							"internalType": "uint256",
							"name": "voteCount",
							"type": "uint256"
						}
					],
					"stateMutability": "view",
					"type": "function"
				},
				{
					"inputs": [],
					"name": "getTotalCandidates",
					"outputs": [
						{
							"internalType": "uint256",
							"name": "",
							"type": "uint256"
						}
					],
					"stateMutability": "view",
					"type": "function"
				},
				{
					"inputs": [],
					"name": "owner",
					"outputs": [
						{
							"internalType": "address",
							"name": "",
							"type": "address"
						}
					],
					"stateMutability": "view",
					"type": "function"
				},
				{
					"inputs": [
						{
							"internalType": "address",
							"name": "newOwner",
							"type": "address"
						}
					],
					"name": "transferOwnership",
					"outputs": [],
					"stateMutability": "nonpayable",
					"type": "function"
				},
				{
					"inputs": [
						{
							"internalType": "uint256",
							"name": "_candidateId",
							"type": "uint256"
						}
					],
					"name": "vote",
					"outputs": [],
					"stateMutability": "nonpayable",
					"type": "function"
				},
				{
					"inputs": [
						{
							"internalType": "address",
							"name": "",
							"type": "address"
						}
					],
					"name": "voters",
					"outputs": [
						{
							"internalType": "bool",
							"name": "",
							"type": "bool"
						}
					],
					"stateMutability": "view",
					"type": "function"
				}
			],
			"devdoc": {
				"kind": "dev",
				"methods": {},
				"version": 1
			},
			"evm": {
				"assembly": "    /* \"Votting.sol\":625:2053  contract VotingSystem is Ownable {\r... */\n  mstore(0x40, 0x80)\n  callvalue\n  dup1\n  iszero\n  tag_1\n  jumpi\n  0x00\n  dup1\n  revert\ntag_1:\n  pop\n    /* \"Votting.sol\":236:246  msg.sender */\n  caller\n    /* \"Votting.sol\":228:233  owner */\n  0x00\n  dup1\n    /* \"Votting.sol\":228:246  owner = msg.sender */\n  0x0100\n  exp\n  dup2\n  sload\n  dup2\n  0xffffffffffffffffffffffffffffffffffffffff\n  mul\n  not\n  and\n  swap1\n  dup4\n  0xffffffffffffffffffffffffffffffffffffffff\n  and\n  mul\n  or\n  swap1\n  sstore\n  pop\n    /* \"Votting.sol\":625:2053  contract VotingSystem is Ownable {\r... */\n  dataSize(sub_0)\n  dup1\n  dataOffset(sub_0)\n  0x00\n  codecopy\n  0x00\n  return\nstop\n\nsub_0: assembly {\n        /* \"Votting.sol\":625:2053  contract VotingSystem is Ownable {\r... */\n      mstore(0x40, 0x80)\n      callvalue\n      dup1\n      iszero\n      tag_1\n      jumpi\n      0x00\n      dup1\n      revert\n    tag_1:\n      pop\n      jumpi(tag_2, lt(calldatasize, 0x04))\n      shr(0xe0, calldataload(0x00))\n      dup1\n      0x35b8e820\n      gt\n      tag_12\n      jumpi\n      dup1\n      0x35b8e820\n      eq\n      tag_7\n      jumpi\n      dup1\n      0x462e91ec\n      eq\n      tag_8\n      jumpi\n      dup1\n      0x8da5cb5b\n      eq\n      tag_9\n      jumpi\n      dup1\n      0xa3ec138d\n      eq\n      tag_10\n      jumpi\n      dup1\n      0xf2fde38b\n      eq\n      tag_11\n      jumpi\n      jump(tag_2)\n    tag_12:\n      dup1\n      0x0121b93f\n      eq\n      tag_3\n      jumpi\n      dup1\n      0x0deb56ab\n      eq\n      tag_4\n      jumpi\n      dup1\n      0x2d35a8a2\n      eq\n      tag_5\n      jumpi\n      dup1\n      0x3477ee2e\n      eq\n      tag_6\n      jumpi\n    tag_2:\n      0x00\n      dup1\n      revert\n        /* \"Votting.sol\":1270:1615  function vote(uint _candidateId) public {\r... */\n    tag_3:\n      tag_13\n      0x04\n      dup1\n      calldatasize\n      sub\n      dup2\n      add\n      swap1\n      tag_14\n      swap2\n      swap1\n      tag_15\n      jump\t// in\n    tag_14:\n      tag_16\n      jump\t// in\n    tag_13:\n      stop\n        /* \"Votting.sol\":1952:2050  function getTotalCandidates() public view returns (uint) {\r... */\n    tag_4:\n      tag_17\n      tag_18\n      jump\t// in\n    tag_17:\n      mload(0x40)\n      tag_19\n      swap2\n      swap1\n      tag_20\n      jump\t// in\n    tag_19:\n      mload(0x40)\n      dup1\n      swap2\n      sub\n      swap1\n      return\n        /* \"Votting.sol\":859:886  uint public candidatesCount */\n    tag_5:\n      tag_21\n      tag_22\n      jump\t// in\n    tag_21:\n      mload(0x40)\n      tag_23\n      swap2\n      swap1\n      tag_20\n      jump\t// in\n    tag_23:\n      mload(0x40)\n      dup1\n      swap2\n      sub\n      swap1\n      return\n        /* \"Votting.sol\":763:807  mapping(uint => Candidate) public candidates */\n    tag_6:\n      tag_24\n      0x04\n      dup1\n      calldatasize\n      sub\n      dup2\n      add\n      swap1\n      tag_25\n      swap2\n      swap1\n      tag_15\n      jump\t// in\n    tag_25:\n      tag_26\n      jump\t// in\n    tag_24:\n      mload(0x40)\n      tag_27\n      swap4\n      swap3\n      swap2\n      swap1\n      tag_28\n      jump\t// in\n    tag_27:\n      mload(0x40)\n      dup1\n      swap2\n      sub\n      swap1\n      return\n        /* \"Votting.sol\":1623:1944  function getCandidate(uint _candidateId) public view returns (string memory name, uint voteCount) {\r... */\n    tag_7:\n      tag_29\n      0x04\n      dup1\n      calldatasize\n      sub\n      dup2\n      add\n      swap1\n      tag_30\n      swap2\n      swap1\n      tag_15\n      jump\t// in\n    tag_30:\n      tag_31\n      jump\t// in\n    tag_29:\n      mload(0x40)\n      tag_32\n      swap3\n      swap2\n      swap1\n      tag_33\n      jump\t// in\n    tag_32:\n      mload(0x40)\n      dup1\n      swap2\n      sub\n      swap1\n      return\n        /* \"Votting.sol\":1033:1262  function addCandidate(string calldata _name) public onlyOwner {\r... */\n    tag_8:\n      tag_34\n      0x04\n      dup1\n      calldatasize\n      sub\n      dup2\n      add\n      swap1\n      tag_35\n      swap2\n      swap1\n      tag_36\n      jump\t// in\n    tag_35:\n      tag_37\n      jump\t// in\n    tag_34:\n      stop\n        /* \"Votting.sol\":83:103  address public owner */\n    tag_9:\n      tag_38\n      tag_39\n      jump\t// in\n    tag_38:\n      mload(0x40)\n      tag_40\n      swap2\n      swap1\n      tag_41\n      jump\t// in\n    tag_40:\n      mload(0x40)\n      dup1\n      swap2\n      sub\n      swap1\n      return\n        /* \"Votting.sol\":814:852  mapping(address => bool) public voters */\n    tag_10:\n      tag_42\n      0x04\n      dup1\n      calldatasize\n      sub\n      dup2\n      add\n      swap1\n      tag_43\n      swap2\n      swap1\n      tag_44\n      jump\t// in\n    tag_43:\n      tag_45\n      jump\t// in\n    tag_42:\n      mload(0x40)\n      tag_46\n      swap2\n      swap1\n      tag_47\n      jump\t// in\n    tag_46:\n      mload(0x40)\n      dup1\n      swap2\n      sub\n      swap1\n      return\n        /* \"Votting.sol\":391:618  function transferOwnership(address newOwner) public onlyOwner {\r... */\n    tag_11:\n      tag_48\n      0x04\n      dup1\n      calldatasize\n      sub\n      dup2\n      add\n      swap1\n      tag_49\n      swap2\n      swap1\n      tag_44\n      jump\t// in\n    tag_49:\n      tag_50\n      jump\t// in\n    tag_48:\n      stop\n        /* \"Votting.sol\":1270:1615  function vote(uint _candidateId) public {\r... */\n    tag_16:\n        /* \"Votting.sol\":1330:1336  voters */\n      0x02\n        /* \"Votting.sol\":1330:1348  voters[msg.sender] */\n      0x00\n        /* \"Votting.sol\":1337:1347  msg.sender */\n      caller\n        /* \"Votting.sol\":1330:1348  voters[msg.sender] */\n      0xffffffffffffffffffffffffffffffffffffffff\n      and\n      0xffffffffffffffffffffffffffffffffffffffff\n      and\n      dup2\n      mstore\n      0x20\n      add\n      swap1\n      dup2\n      mstore\n      0x20\n      add\n      0x00\n      keccak256\n      0x00\n      swap1\n      sload\n      swap1\n      0x0100\n      exp\n      swap1\n      div\n      0xff\n      and\n        /* \"Votting.sol\":1329:1348  !voters[msg.sender] */\n      iszero\n        /* \"Votting.sol\":1321:1375  require(!voters[msg.sender], \"You have already voted\") */\n      tag_52\n      jumpi\n      mload(0x40)\n      0x08c379a000000000000000000000000000000000000000000000000000000000\n      dup2\n      mstore\n      0x04\n      add\n      tag_53\n      swap1\n      tag_54\n      jump\t// in\n    tag_53:\n      mload(0x40)\n      dup1\n      swap2\n      sub\n      swap1\n      revert\n    tag_52:\n        /* \"Votting.sol\":1409:1410  0 */\n      0x00\n        /* \"Votting.sol\":1394:1406  _candidateId */\n      dup2\n        /* \"Votting.sol\":1394:1410  _candidateId > 0 */\n      gt\n        /* \"Votting.sol\":1394:1445  _candidateId > 0 && _candidateId <= candidatesCount */\n      dup1\n      iszero\n      tag_55\n      jumpi\n      pop\n        /* \"Votting.sol\":1430:1445  candidatesCount */\n      sload(0x03)\n        /* \"Votting.sol\":1414:1426  _candidateId */\n      dup2\n        /* \"Votting.sol\":1414:1445  _candidateId <= candidatesCount */\n      gt\n      iszero\n        /* \"Votting.sol\":1394:1445  _candidateId > 0 && _candidateId <= candidatesCount */\n    tag_55:\n        /* \"Votting.sol\":1386:1470  require(_candidateId > 0 && _candidateId <= candidatesCount, \"Invalid candidate ID\") */\n      tag_56\n      jumpi\n      mload(0x40)\n      0x08c379a000000000000000000000000000000000000000000000000000000000\n      dup2\n      mstore\n      0x04\n      add\n      tag_57\n      swap1\n      tag_58\n      jump\t// in\n    tag_57:\n      mload(0x40)\n      dup1\n      swap2\n      sub\n      swap1\n      revert\n    tag_56:\n        /* \"Votting.sol\":1504:1508  true */\n      0x01\n        /* \"Votting.sol\":1483:1489  voters */\n      0x02\n        /* \"Votting.sol\":1483:1501  voters[msg.sender] */\n      0x00\n        /* \"Votting.sol\":1490:1500  msg.sender */\n      caller\n        /* \"Votting.sol\":1483:1501  voters[msg.sender] */\n      0xffffffffffffffffffffffffffffffffffffffff\n      and\n      0xffffffffffffffffffffffffffffffffffffffff\n      and\n      dup2\n      mstore\n      0x20\n      add\n      swap1\n      dup2\n      mstore\n      0x20\n      add\n      0x00\n      keccak256\n      0x00\n        /* \"Votting.sol\":1483:1508  voters[msg.sender] = true */\n      0x0100\n      exp\n      dup2\n      sload\n      dup2\n      0xff\n      mul\n      not\n      and\n      swap1\n      dup4\n      iszero\n      iszero\n      mul\n      or\n      swap1\n      sstore\n      pop\n        /* \"Votting.sol\":1519:1529  candidates */\n      0x01\n        /* \"Votting.sol\":1519:1543  candidates[_candidateId] */\n      0x00\n        /* \"Votting.sol\":1530:1542  _candidateId */\n      dup3\n        /* \"Votting.sol\":1519:1543  candidates[_candidateId] */\n      dup2\n      mstore\n      0x20\n      add\n      swap1\n      dup2\n      mstore\n      0x20\n      add\n      0x00\n      keccak256\n        /* \"Votting.sol\":1519:1553  candidates[_candidateId].voteCount */\n      0x02\n      add\n      0x00\n        /* \"Votting.sol\":1519:1555  candidates[_candidateId].voteCount++ */\n      dup2\n      sload\n      dup1\n      swap3\n      swap2\n      swap1\n      tag_59\n      swap1\n      tag_60\n      jump\t// in\n    tag_59:\n      swap2\n      swap1\n      pop\n      sstore\n      pop\n        /* \"Votting.sol\":1594:1606  _candidateId */\n      dup1\n        /* \"Votting.sol\":1582:1592  msg.sender */\n      caller\n        /* \"Votting.sol\":1573:1607  VoteCast(msg.sender, _candidateId) */\n      0xffffffffffffffffffffffffffffffffffffffff\n      and\n      0xa36cc2bebb74db33e9f88110a07ef56e1b31b24b4c4f51b54b1664266e29f45b\n      mload(0x40)\n      mload(0x40)\n      dup1\n      swap2\n      sub\n      swap1\n      log3\n        /* \"Votting.sol\":1270:1615  function vote(uint _candidateId) public {\r... */\n      pop\n      jump\t// out\n        /* \"Votting.sol\":1952:2050  function getTotalCandidates() public view returns (uint) {\r... */\n    tag_18:\n        /* \"Votting.sol\":2003:2007  uint */\n      0x00\n        /* \"Votting.sol\":2027:2042  candidatesCount */\n      sload(0x03)\n        /* \"Votting.sol\":2020:2042  return candidatesCount */\n      swap1\n      pop\n        /* \"Votting.sol\":1952:2050  function getTotalCandidates() public view returns (uint) {\r... */\n      swap1\n      jump\t// out\n        /* \"Votting.sol\":859:886  uint public candidatesCount */\n    tag_22:\n      sload(0x03)\n      dup2\n      jump\t// out\n        /* \"Votting.sol\":763:807  mapping(uint => Candidate) public candidates */\n    tag_26:\n      mstore(0x20, 0x01)\n      dup1\n      0x00\n      mstore\n      keccak256(0x00, 0x40)\n      0x00\n      swap2\n      pop\n      swap1\n      pop\n      dup1\n      0x00\n      add\n      sload\n      swap1\n      dup1\n      0x01\n      add\n      dup1\n      sload\n      tag_62\n      swap1\n      tag_63\n      jump\t// in\n    tag_62:\n      dup1\n      0x1f\n      add\n      0x20\n      dup1\n      swap2\n      div\n      mul\n      0x20\n      add\n      mload(0x40)\n      swap1\n      dup2\n      add\n      0x40\n      mstore\n      dup1\n      swap3\n      swap2\n      swap1\n      dup2\n      dup2\n      mstore\n      0x20\n      add\n      dup3\n      dup1\n      sload\n      tag_64\n      swap1\n      tag_63\n      jump\t// in\n    tag_64:\n      dup1\n      iszero\n      tag_65\n      jumpi\n      dup1\n      0x1f\n      lt\n      tag_66\n      jumpi\n      0x0100\n      dup1\n      dup4\n      sload\n      div\n      mul\n      dup4\n      mstore\n      swap2\n      0x20\n      add\n      swap2\n      jump(tag_65)\n    tag_66:\n      dup3\n      add\n      swap2\n      swap1\n      0x00\n      mstore\n      keccak256(0x00, 0x20)\n      swap1\n    tag_67:\n      dup2\n      sload\n      dup2\n      mstore\n      swap1\n      0x01\n      add\n      swap1\n      0x20\n      add\n      dup1\n      dup4\n      gt\n      tag_67\n      jumpi\n      dup3\n      swap1\n      sub\n      0x1f\n      and\n      dup3\n      add\n      swap2\n    tag_65:\n      pop\n      pop\n      pop\n      pop\n      pop\n      swap1\n      dup1\n      0x02\n      add\n      sload\n      swap1\n      pop\n      dup4\n      jump\t// out\n        /* \"Votting.sol\":1623:1944  function getCandidate(uint _candidateId) public view returns (string memory name, uint voteCount) {\r... */\n    tag_31:\n        /* \"Votting.sol\":1685:1703  string memory name */\n      0x60\n        /* \"Votting.sol\":1705:1719  uint voteCount */\n      0x00\n        /* \"Votting.sol\":1755:1756  0 */\n      dup1\n        /* \"Votting.sol\":1740:1752  _candidateId */\n      dup4\n        /* \"Votting.sol\":1740:1756  _candidateId > 0 */\n      gt\n        /* \"Votting.sol\":1740:1791  _candidateId > 0 && _candidateId <= candidatesCount */\n      dup1\n      iszero\n      tag_69\n      jumpi\n      pop\n        /* \"Votting.sol\":1776:1791  candidatesCount */\n      sload(0x03)\n        /* \"Votting.sol\":1760:1772  _candidateId */\n      dup4\n        /* \"Votting.sol\":1760:1791  _candidateId <= candidatesCount */\n      gt\n      iszero\n        /* \"Votting.sol\":1740:1791  _candidateId > 0 && _candidateId <= candidatesCount */\n    tag_69:\n        /* \"Votting.sol\":1732:1816  require(_candidateId > 0 && _candidateId <= candidatesCount, \"Invalid candidate ID\") */\n      tag_70\n      jumpi\n      mload(0x40)\n      0x08c379a000000000000000000000000000000000000000000000000000000000\n      dup2\n      mstore\n      0x04\n      add\n      tag_71\n      swap1\n      tag_58\n      jump\t// in\n    tag_71:\n      mload(0x40)\n      dup1\n      swap2\n      sub\n      swap1\n      revert\n    tag_70:\n        /* \"Votting.sol\":1827:1854  Candidate storage candidate */\n      0x00\n        /* \"Votting.sol\":1857:1867  candidates */\n      0x01\n        /* \"Votting.sol\":1857:1881  candidates[_candidateId] */\n      0x00\n        /* \"Votting.sol\":1868:1880  _candidateId */\n      dup6\n        /* \"Votting.sol\":1857:1881  candidates[_candidateId] */\n      dup2\n      mstore\n      0x20\n      add\n      swap1\n      dup2\n      mstore\n      0x20\n      add\n      0x00\n      keccak256\n        /* \"Votting.sol\":1827:1881  Candidate storage candidate = candidates[_candidateId] */\n      swap1\n      pop\n        /* \"Votting.sol\":1900:1909  candidate */\n      dup1\n        /* \"Votting.sol\":1900:1914  candidate.name */\n      0x01\n      add\n        /* \"Votting.sol\":1916:1925  candidate */\n      dup2\n        /* \"Votting.sol\":1916:1935  candidate.voteCount */\n      0x02\n      add\n      sload\n        /* \"Votting.sol\":1892:1936  return (candidate.name, candidate.voteCount) */\n      dup2\n      dup1\n      sload\n      tag_72\n      swap1\n      tag_63\n      jump\t// in\n    tag_72:\n      dup1\n      0x1f\n      add\n      0x20\n      dup1\n      swap2\n      div\n      mul\n      0x20\n      add\n      mload(0x40)\n      swap1\n      dup2\n      add\n      0x40\n      mstore\n      dup1\n      swap3\n      swap2\n      swap1\n      dup2\n      dup2\n      mstore\n      0x20\n      add\n      dup3\n      dup1\n      sload\n      tag_73\n      swap1\n      tag_63\n      jump\t// in\n    tag_73:\n      dup1\n      iszero\n      tag_74\n      jumpi\n      dup1\n      0x1f\n      lt\n      tag_75\n      jumpi\n      0x0100\n      dup1\n      dup4\n      sload\n      div\n      mul\n      dup4\n      mstore\n      swap2\n      0x20\n      add\n      swap2\n      jump(tag_74)\n    tag_75:\n      dup3\n      add\n      swap2\n      swap1\n      0x00\n      mstore\n      keccak256(0x00, 0x20)\n      swap1\n    tag_76:\n      dup2\n      sload\n      dup2\n      mstore\n      swap1\n      0x01\n      add\n      swap1\n      0x20\n      add\n      dup1\n      dup4\n      gt\n      tag_76\n      jumpi\n      dup3\n      swap1\n      sub\n      0x1f\n      and\n      dup3\n      add\n      swap2\n    tag_74:\n      pop\n      pop\n      pop\n      pop\n      pop\n      swap2\n      pop\n      swap3\n      pop\n      swap3\n      pop\n      pop\n        /* \"Votting.sol\":1623:1944  function getCandidate(uint _candidateId) public view returns (string memory name, uint voteCount) {\r... */\n      swap2\n      pop\n      swap2\n      jump\t// out\n        /* \"Votting.sol\":1033:1262  function addCandidate(string calldata _name) public onlyOwner {\r... */\n    tag_37:\n        /* \"Votting.sol\":316:321  owner */\n      0x00\n      dup1\n      sload\n      swap1\n      0x0100\n      exp\n      swap1\n      div\n      0xffffffffffffffffffffffffffffffffffffffff\n      and\n        /* \"Votting.sol\":302:321  msg.sender == owner */\n      0xffffffffffffffffffffffffffffffffffffffff\n      and\n        /* \"Votting.sol\":302:312  msg.sender */\n      caller\n        /* \"Votting.sol\":302:321  msg.sender == owner */\n      0xffffffffffffffffffffffffffffffffffffffff\n      and\n      eq\n        /* \"Votting.sol\":294:363  require(msg.sender == owner, \"Only the owner can call this function\") */\n      tag_78\n      jumpi\n      mload(0x40)\n      0x08c379a000000000000000000000000000000000000000000000000000000000\n      dup2\n      mstore\n      0x04\n      add\n      tag_79\n      swap1\n      tag_80\n      jump\t// in\n    tag_79:\n      mload(0x40)\n      dup1\n      swap2\n      sub\n      swap1\n      revert\n    tag_78:\n        /* \"Votting.sol\":1106:1121  candidatesCount */\n      0x03\n      0x00\n        /* \"Votting.sol\":1106:1123  candidatesCount++ */\n      dup2\n      sload\n      dup1\n      swap3\n      swap2\n      swap1\n      tag_82\n      swap1\n      tag_60\n      jump\t// in\n    tag_82:\n      swap2\n      swap1\n      pop\n      sstore\n      pop\n        /* \"Votting.sol\":1164:1200  Candidate(candidatesCount, _name, 0) */\n      mload(0x40)\n      dup1\n      0x60\n      add\n      0x40\n      mstore\n      dup1\n        /* \"Votting.sol\":1174:1189  candidatesCount */\n      sload(0x03)\n        /* \"Votting.sol\":1164:1200  Candidate(candidatesCount, _name, 0) */\n      dup2\n      mstore\n      0x20\n      add\n        /* \"Votting.sol\":1191:1196  _name */\n      dup4\n      dup4\n        /* \"Votting.sol\":1164:1200  Candidate(candidatesCount, _name, 0) */\n      dup1\n      dup1\n      0x1f\n      add\n      0x20\n      dup1\n      swap2\n      div\n      mul\n      0x20\n      add\n      mload(0x40)\n      swap1\n      dup2\n      add\n      0x40\n      mstore\n      dup1\n      swap4\n      swap3\n      swap2\n      swap1\n      dup2\n      dup2\n      mstore\n      0x20\n      add\n      dup4\n      dup4\n      dup1\n      dup3\n      dup5\n      calldatacopy\n      0x00\n      dup2\n      dup5\n      add\n      mstore\n      not(0x1f)\n      0x1f\n      dup3\n      add\n      and\n      swap1\n      pop\n      dup1\n      dup4\n      add\n      swap3\n      pop\n      pop\n      pop\n      pop\n      pop\n      pop\n      pop\n      dup2\n      mstore\n      0x20\n      add\n        /* \"Votting.sol\":1198:1199  0 */\n      0x00\n        /* \"Votting.sol\":1164:1200  Candidate(candidatesCount, _name, 0) */\n      dup2\n      mstore\n      pop\n        /* \"Votting.sol\":1134:1144  candidates */\n      0x01\n        /* \"Votting.sol\":1134:1161  candidates[candidatesCount] */\n      0x00\n        /* \"Votting.sol\":1145:1160  candidatesCount */\n      sload(0x03)\n        /* \"Votting.sol\":1134:1161  candidates[candidatesCount] */\n      dup2\n      mstore\n      0x20\n      add\n      swap1\n      dup2\n      mstore\n      0x20\n      add\n      0x00\n      keccak256\n        /* \"Votting.sol\":1134:1200  candidates[candidatesCount] = Candidate(candidatesCount, _name, 0) */\n      0x00\n      dup3\n      add\n      mload\n      dup2\n      0x00\n      add\n      sstore\n      0x20\n      dup3\n      add\n      mload\n      dup2\n      0x01\n      add\n      swap1\n      dup1\n      mload\n      swap1\n      0x20\n      add\n      swap1\n      tag_83\n      swap3\n      swap2\n      swap1\n      tag_84\n      jump\t// in\n    tag_83:\n      pop\n      0x40\n      dup3\n      add\n      mload\n      dup2\n      0x02\n      add\n      sstore\n      swap1\n      pop\n      pop\n        /* \"Votting.sol\":1231:1246  candidatesCount */\n      sload(0x03)\n        /* \"Votting.sol\":1216:1254  CandidateAdded(candidatesCount, _name) */\n      0xe83b2a43e7e82d975c8a0a6d2f045153c869e111136a34d1889ab7b598e396a3\n        /* \"Votting.sol\":1248:1253  _name */\n      dup4\n      dup4\n        /* \"Votting.sol\":1216:1254  CandidateAdded(candidatesCount, _name) */\n      mload(0x40)\n      tag_85\n      swap3\n      swap2\n      swap1\n      tag_86\n      jump\t// in\n    tag_85:\n      mload(0x40)\n      dup1\n      swap2\n      sub\n      swap1\n      log2\n        /* \"Votting.sol\":1033:1262  function addCandidate(string calldata _name) public onlyOwner {\r... */\n      pop\n      pop\n      jump\t// out\n        /* \"Votting.sol\":83:103  address public owner */\n    tag_39:\n      0x00\n      dup1\n      sload\n      swap1\n      0x0100\n      exp\n      swap1\n      div\n      0xffffffffffffffffffffffffffffffffffffffff\n      and\n      dup2\n      jump\t// out\n        /* \"Votting.sol\":814:852  mapping(address => bool) public voters */\n    tag_45:\n      mstore(0x20, 0x02)\n      dup1\n      0x00\n      mstore\n      keccak256(0x00, 0x40)\n      0x00\n      swap2\n      pop\n      sload\n      swap1\n      0x0100\n      exp\n      swap1\n      div\n      0xff\n      and\n      dup2\n      jump\t// out\n        /* \"Votting.sol\":391:618  function transferOwnership(address newOwner) public onlyOwner {\r... */\n    tag_50:\n        /* \"Votting.sol\":316:321  owner */\n      0x00\n      dup1\n      sload\n      swap1\n      0x0100\n      exp\n      swap1\n      div\n      0xffffffffffffffffffffffffffffffffffffffff\n      and\n        /* \"Votting.sol\":302:321  msg.sender == owner */\n      0xffffffffffffffffffffffffffffffffffffffff\n      and\n        /* \"Votting.sol\":302:312  msg.sender */\n      caller\n        /* \"Votting.sol\":302:321  msg.sender == owner */\n      0xffffffffffffffffffffffffffffffffffffffff\n      and\n      eq\n        /* \"Votting.sol\":294:363  require(msg.sender == owner, \"Only the owner can call this function\") */\n      tag_88\n      jumpi\n      mload(0x40)\n      0x08c379a000000000000000000000000000000000000000000000000000000000\n      dup2\n      mstore\n      0x04\n      add\n      tag_89\n      swap1\n      tag_80\n      jump\t// in\n    tag_89:\n      mload(0x40)\n      dup1\n      swap2\n      sub\n      swap1\n      revert\n    tag_88:\n        /* \"Votting.sol\":492:493  0 */\n      0x00\n        /* \"Votting.sol\":472:494  newOwner != address(0) */\n      0xffffffffffffffffffffffffffffffffffffffff\n      and\n        /* \"Votting.sol\":472:480  newOwner */\n      dup2\n        /* \"Votting.sol\":472:494  newOwner != address(0) */\n      0xffffffffffffffffffffffffffffffffffffffff\n      and\n      eq\n      iszero\n        /* \"Votting.sol\":464:531  require(newOwner != address(0), \"New owner cannot be zero address\") */\n      tag_91\n      jumpi\n      mload(0x40)\n      0x08c379a000000000000000000000000000000000000000000000000000000000\n      dup2\n      mstore\n      0x04\n      add\n      tag_92\n      swap1\n      tag_93\n      jump\t// in\n    tag_92:\n      mload(0x40)\n      dup1\n      swap2\n      sub\n      swap1\n      revert\n    tag_91:\n        /* \"Votting.sol\":574:582  newOwner */\n      dup1\n        /* \"Votting.sol\":547:583  OwnershipTransfered(owner, newOwner) */\n      0xffffffffffffffffffffffffffffffffffffffff\n      and\n        /* \"Votting.sol\":567:572  owner */\n      0x00\n      dup1\n      sload\n      swap1\n      0x0100\n      exp\n      swap1\n      div\n      0xffffffffffffffffffffffffffffffffffffffff\n      and\n        /* \"Votting.sol\":547:583  OwnershipTransfered(owner, newOwner) */\n      0xffffffffffffffffffffffffffffffffffffffff\n      and\n      0x0d18b5fd22306e373229b9439188228edca81207d1667f604daf6cef8aa3ee67\n      mload(0x40)\n      mload(0x40)\n      dup1\n      swap2\n      sub\n      swap1\n      log3\n        /* \"Votting.sol\":602:610  newOwner */\n      dup1\n        /* \"Votting.sol\":594:599  owner */\n      0x00\n      dup1\n        /* \"Votting.sol\":594:610  owner = newOwner */\n      0x0100\n      exp\n      dup2\n      sload\n      dup2\n      0xffffffffffffffffffffffffffffffffffffffff\n      mul\n      not\n      and\n      swap1\n      dup4\n      0xffffffffffffffffffffffffffffffffffffffff\n      and\n      mul\n      or\n      swap1\n      sstore\n      pop\n        /* \"Votting.sol\":391:618  function transferOwnership(address newOwner) public onlyOwner {\r... */\n      pop\n      jump\t// out\n    tag_84:\n      dup3\n      dup1\n      sload\n      tag_94\n      swap1\n      tag_63\n      jump\t// in\n    tag_94:\n      swap1\n      0x00\n      mstore\n      keccak256(0x00, 0x20)\n      swap1\n      0x1f\n      add\n      0x20\n      swap1\n      div\n      dup2\n      add\n      swap3\n      dup3\n      tag_96\n      jumpi\n      0x00\n      dup6\n      sstore\n      jump(tag_95)\n    tag_96:\n      dup3\n      0x1f\n      lt\n      tag_97\n      jumpi\n      dup1\n      mload\n      not(0xff)\n      and\n      dup4\n      dup1\n      add\n      or\n      dup6\n      sstore\n      jump(tag_95)\n    tag_97:\n      dup3\n      dup1\n      add\n      0x01\n      add\n      dup6\n      sstore\n      dup3\n      iszero\n      tag_95\n      jumpi\n      swap2\n      dup3\n      add\n    tag_98:\n      dup3\n      dup2\n      gt\n      iszero\n      tag_99\n      jumpi\n      dup3\n      mload\n      dup3\n      sstore\n      swap2\n      0x20\n      add\n      swap2\n      swap1\n      0x01\n      add\n      swap1\n      jump(tag_98)\n    tag_99:\n    tag_95:\n      pop\n      swap1\n      pop\n      tag_100\n      swap2\n      swap1\n      tag_101\n      jump\t// in\n    tag_100:\n      pop\n      swap1\n      jump\t// out\n    tag_101:\n    tag_102:\n      dup1\n      dup3\n      gt\n      iszero\n      tag_103\n      jumpi\n      0x00\n      dup2\n      0x00\n      swap1\n      sstore\n      pop\n      0x01\n      add\n      jump(tag_102)\n    tag_103:\n      pop\n      swap1\n      jump\t// out\n        /* \"#utility.yul\":7:146   */\n    tag_105:\n      0x00\n        /* \"#utility.yul\":91:97   */\n      dup2\n        /* \"#utility.yul\":78:98   */\n      calldataload\n        /* \"#utility.yul\":69:98   */\n      swap1\n      pop\n        /* \"#utility.yul\":107:140   */\n      tag_107\n        /* \"#utility.yul\":134:139   */\n      dup2\n        /* \"#utility.yul\":107:140   */\n      tag_108\n      jump\t// in\n    tag_107:\n        /* \"#utility.yul\":59:146   */\n      swap3\n      swap2\n      pop\n      pop\n      jump\t// out\n        /* \"#utility.yul\":166:518   */\n    tag_109:\n      0x00\n      dup1\n        /* \"#utility.yul\":284:287   */\n      dup4\n        /* \"#utility.yul\":277:281   */\n      0x1f\n        /* \"#utility.yul\":269:275   */\n      dup5\n        /* \"#utility.yul\":265:282   */\n      add\n        /* \"#utility.yul\":261:288   */\n      slt\n        /* \"#utility.yul\":251:253   */\n      tag_111\n      jumpi\n        /* \"#utility.yul\":302:303   */\n      0x00\n        /* \"#utility.yul\":299:300   */\n      dup1\n        /* \"#utility.yul\":292:304   */\n      revert\n        /* \"#utility.yul\":251:253   */\n    tag_111:\n        /* \"#utility.yul\":338:344   */\n      dup3\n        /* \"#utility.yul\":325:345   */\n      calldataload\n        /* \"#utility.yul\":315:345   */\n      swap1\n      pop\n        /* \"#utility.yul\":368:386   */\n      0xffffffffffffffff\n        /* \"#utility.yul\":360:366   */\n      dup2\n        /* \"#utility.yul\":357:387   */\n      gt\n        /* \"#utility.yul\":354:356   */\n      iszero\n      tag_112\n      jumpi\n        /* \"#utility.yul\":400:401   */\n      0x00\n        /* \"#utility.yul\":397:398   */\n      dup1\n        /* \"#utility.yul\":390:402   */\n      revert\n        /* \"#utility.yul\":354:356   */\n    tag_112:\n        /* \"#utility.yul\":437:441   */\n      0x20\n        /* \"#utility.yul\":429:435   */\n      dup4\n        /* \"#utility.yul\":425:442   */\n      add\n        /* \"#utility.yul\":413:442   */\n      swap2\n      pop\n        /* \"#utility.yul\":491:494   */\n      dup4\n        /* \"#utility.yul\":483:487   */\n      0x01\n        /* \"#utility.yul\":475:481   */\n      dup3\n        /* \"#utility.yul\":471:488   */\n      mul\n        /* \"#utility.yul\":461:469   */\n      dup4\n        /* \"#utility.yul\":457:489   */\n      add\n        /* \"#utility.yul\":454:495   */\n      gt\n        /* \"#utility.yul\":451:453   */\n      iszero\n      tag_113\n      jumpi\n        /* \"#utility.yul\":508:509   */\n      0x00\n        /* \"#utility.yul\":505:506   */\n      dup1\n        /* \"#utility.yul\":498:510   */\n      revert\n        /* \"#utility.yul\":451:453   */\n    tag_113:\n        /* \"#utility.yul\":241:518   */\n      swap3\n      pop\n      swap3\n      swap1\n      pop\n      jump\t// out\n        /* \"#utility.yul\":524:663   */\n    tag_114:\n      0x00\n        /* \"#utility.yul\":608:614   */\n      dup2\n        /* \"#utility.yul\":595:615   */\n      calldataload\n        /* \"#utility.yul\":586:615   */\n      swap1\n      pop\n        /* \"#utility.yul\":624:657   */\n      tag_116\n        /* \"#utility.yul\":651:656   */\n      dup2\n        /* \"#utility.yul\":624:657   */\n      tag_117\n      jump\t// in\n    tag_116:\n        /* \"#utility.yul\":576:663   */\n      swap3\n      swap2\n      pop\n      pop\n      jump\t// out\n        /* \"#utility.yul\":669:931   */\n    tag_44:\n      0x00\n        /* \"#utility.yul\":777:779   */\n      0x20\n        /* \"#utility.yul\":765:774   */\n      dup3\n        /* \"#utility.yul\":756:763   */\n      dup5\n        /* \"#utility.yul\":752:775   */\n      sub\n        /* \"#utility.yul\":748:780   */\n      slt\n        /* \"#utility.yul\":745:747   */\n      iszero\n      tag_119\n      jumpi\n        /* \"#utility.yul\":793:794   */\n      0x00\n        /* \"#utility.yul\":790:791   */\n      dup1\n        /* \"#utility.yul\":783:795   */\n      revert\n        /* \"#utility.yul\":745:747   */\n    tag_119:\n        /* \"#utility.yul\":836:837   */\n      0x00\n        /* \"#utility.yul\":861:914   */\n      tag_120\n        /* \"#utility.yul\":906:913   */\n      dup5\n        /* \"#utility.yul\":897:903   */\n      dup3\n        /* \"#utility.yul\":886:895   */\n      dup6\n        /* \"#utility.yul\":882:904   */\n      add\n        /* \"#utility.yul\":861:914   */\n      tag_105\n      jump\t// in\n    tag_120:\n        /* \"#utility.yul\":851:914   */\n      swap2\n      pop\n        /* \"#utility.yul\":807:924   */\n      pop\n        /* \"#utility.yul\":735:931   */\n      swap3\n      swap2\n      pop\n      pop\n      jump\t// out\n        /* \"#utility.yul\":937:1332   */\n    tag_36:\n      0x00\n      dup1\n        /* \"#utility.yul\":1065:1067   */\n      0x20\n        /* \"#utility.yul\":1053:1062   */\n      dup4\n        /* \"#utility.yul\":1044:1051   */\n      dup6\n        /* \"#utility.yul\":1040:1063   */\n      sub\n        /* \"#utility.yul\":1036:1068   */\n      slt\n        /* \"#utility.yul\":1033:1035   */\n      iszero\n      tag_122\n      jumpi\n        /* \"#utility.yul\":1081:1082   */\n      0x00\n        /* \"#utility.yul\":1078:1079   */\n      dup1\n        /* \"#utility.yul\":1071:1083   */\n      revert\n        /* \"#utility.yul\":1033:1035   */\n    tag_122:\n        /* \"#utility.yul\":1152:1153   */\n      0x00\n        /* \"#utility.yul\":1141:1150   */\n      dup4\n        /* \"#utility.yul\":1137:1154   */\n      add\n        /* \"#utility.yul\":1124:1155   */\n      calldataload\n        /* \"#utility.yul\":1182:1200   */\n      0xffffffffffffffff\n        /* \"#utility.yul\":1174:1180   */\n      dup2\n        /* \"#utility.yul\":1171:1201   */\n      gt\n        /* \"#utility.yul\":1168:1170   */\n      iszero\n      tag_123\n      jumpi\n        /* \"#utility.yul\":1214:1215   */\n      0x00\n        /* \"#utility.yul\":1211:1212   */\n      dup1\n        /* \"#utility.yul\":1204:1216   */\n      revert\n        /* \"#utility.yul\":1168:1170   */\n    tag_123:\n        /* \"#utility.yul\":1250:1315   */\n      tag_124\n        /* \"#utility.yul\":1307:1314   */\n      dup6\n        /* \"#utility.yul\":1298:1304   */\n      dup3\n        /* \"#utility.yul\":1287:1296   */\n      dup7\n        /* \"#utility.yul\":1283:1305   */\n      add\n        /* \"#utility.yul\":1250:1315   */\n      tag_109\n      jump\t// in\n    tag_124:\n        /* \"#utility.yul\":1232:1315   */\n      swap3\n      pop\n      swap3\n      pop\n        /* \"#utility.yul\":1095:1325   */\n      pop\n        /* \"#utility.yul\":1023:1332   */\n      swap3\n      pop\n      swap3\n      swap1\n      pop\n      jump\t// out\n        /* \"#utility.yul\":1338:1600   */\n    tag_15:\n      0x00\n        /* \"#utility.yul\":1446:1448   */\n      0x20\n        /* \"#utility.yul\":1434:1443   */\n      dup3\n        /* \"#utility.yul\":1425:1432   */\n      dup5\n        /* \"#utility.yul\":1421:1444   */\n      sub\n        /* \"#utility.yul\":1417:1449   */\n      slt\n        /* \"#utility.yul\":1414:1416   */\n      iszero\n      tag_126\n      jumpi\n        /* \"#utility.yul\":1462:1463   */\n      0x00\n        /* \"#utility.yul\":1459:1460   */\n      dup1\n        /* \"#utility.yul\":1452:1464   */\n      revert\n        /* \"#utility.yul\":1414:1416   */\n    tag_126:\n        /* \"#utility.yul\":1505:1506   */\n      0x00\n        /* \"#utility.yul\":1530:1583   */\n      tag_127\n        /* \"#utility.yul\":1575:1582   */\n      dup5\n        /* \"#utility.yul\":1566:1572   */\n      dup3\n        /* \"#utility.yul\":1555:1564   */\n      dup6\n        /* \"#utility.yul\":1551:1573   */\n      add\n        /* \"#utility.yul\":1530:1583   */\n      tag_114\n      jump\t// in\n    tag_127:\n        /* \"#utility.yul\":1520:1583   */\n      swap2\n      pop\n        /* \"#utility.yul\":1476:1593   */\n      pop\n        /* \"#utility.yul\":1404:1600   */\n      swap3\n      swap2\n      pop\n      pop\n      jump\t// out\n        /* \"#utility.yul\":1606:1724   */\n    tag_128:\n        /* \"#utility.yul\":1693:1717   */\n      tag_130\n        /* \"#utility.yul\":1711:1716   */\n      dup2\n        /* \"#utility.yul\":1693:1717   */\n      tag_131\n      jump\t// in\n    tag_130:\n        /* \"#utility.yul\":1688:1691   */\n      dup3\n        /* \"#utility.yul\":1681:1718   */\n      mstore\n        /* \"#utility.yul\":1671:1724   */\n      pop\n      pop\n      jump\t// out\n        /* \"#utility.yul\":1730:1839   */\n    tag_132:\n        /* \"#utility.yul\":1811:1832   */\n      tag_134\n        /* \"#utility.yul\":1826:1831   */\n      dup2\n        /* \"#utility.yul\":1811:1832   */\n      tag_135\n      jump\t// in\n    tag_134:\n        /* \"#utility.yul\":1806:1809   */\n      dup3\n        /* \"#utility.yul\":1799:1833   */\n      mstore\n        /* \"#utility.yul\":1789:1839   */\n      pop\n      pop\n      jump\t// out\n        /* \"#utility.yul\":1869:2173   */\n    tag_136:\n      0x00\n        /* \"#utility.yul\":1988:2059   */\n      tag_138\n        /* \"#utility.yul\":2052:2058   */\n      dup4\n        /* \"#utility.yul\":2047:2050   */\n      dup6\n        /* \"#utility.yul\":1988:2059   */\n      tag_139\n      jump\t// in\n    tag_138:\n        /* \"#utility.yul\":1981:2059   */\n      swap4\n      pop\n        /* \"#utility.yul\":2069:2112   */\n      tag_140\n        /* \"#utility.yul\":2105:2111   */\n      dup4\n        /* \"#utility.yul\":2100:2103   */\n      dup6\n        /* \"#utility.yul\":2093:2098   */\n      dup5\n        /* \"#utility.yul\":2069:2112   */\n      tag_141\n      jump\t// in\n    tag_140:\n        /* \"#utility.yul\":2137:2166   */\n      tag_142\n        /* \"#utility.yul\":2159:2165   */\n      dup4\n        /* \"#utility.yul\":2137:2166   */\n      tag_143\n      jump\t// in\n    tag_142:\n        /* \"#utility.yul\":2132:2135   */\n      dup5\n        /* \"#utility.yul\":2128:2167   */\n      add\n        /* \"#utility.yul\":2121:2167   */\n      swap1\n      pop\n        /* \"#utility.yul\":1971:2173   */\n      swap4\n      swap3\n      pop\n      pop\n      pop\n      jump\t// out\n        /* \"#utility.yul\":2179:2543   */\n    tag_144:\n      0x00\n        /* \"#utility.yul\":2295:2334   */\n      tag_146\n        /* \"#utility.yul\":2328:2333   */\n      dup3\n        /* \"#utility.yul\":2295:2334   */\n      tag_147\n      jump\t// in\n    tag_146:\n        /* \"#utility.yul\":2350:2421   */\n      tag_148\n        /* \"#utility.yul\":2414:2420   */\n      dup2\n        /* \"#utility.yul\":2409:2412   */\n      dup6\n        /* \"#utility.yul\":2350:2421   */\n      tag_139\n      jump\t// in\n    tag_148:\n        /* \"#utility.yul\":2343:2421   */\n      swap4\n      pop\n        /* \"#utility.yul\":2430:2482   */\n      tag_149\n        /* \"#utility.yul\":2475:2481   */\n      dup2\n        /* \"#utility.yul\":2470:2473   */\n      dup6\n        /* \"#utility.yul\":2463:2467   */\n      0x20\n        /* \"#utility.yul\":2456:2461   */\n      dup7\n        /* \"#utility.yul\":2452:2468   */\n      add\n        /* \"#utility.yul\":2430:2482   */\n      tag_150\n      jump\t// in\n    tag_149:\n        /* \"#utility.yul\":2507:2536   */\n      tag_151\n        /* \"#utility.yul\":2529:2535   */\n      dup2\n        /* \"#utility.yul\":2507:2536   */\n      tag_143\n      jump\t// in\n    tag_151:\n        /* \"#utility.yul\":2502:2505   */\n      dup5\n        /* \"#utility.yul\":2498:2537   */\n      add\n        /* \"#utility.yul\":2491:2537   */\n      swap2\n      pop\n        /* \"#utility.yul\":2271:2543   */\n      pop\n      swap3\n      swap2\n      pop\n      pop\n      jump\t// out\n        /* \"#utility.yul\":2549:2918   */\n    tag_152:\n      0x00\n        /* \"#utility.yul\":2712:2779   */\n      tag_154\n        /* \"#utility.yul\":2776:2778   */\n      0x25\n        /* \"#utility.yul\":2771:2774   */\n      dup4\n        /* \"#utility.yul\":2712:2779   */\n      tag_139\n      jump\t// in\n    tag_154:\n        /* \"#utility.yul\":2705:2779   */\n      swap2\n      pop\n        /* \"#utility.yul\":2809:2843   */\n      0x4f6e6c7920746865206f776e65722063616e2063616c6c20746869732066756e\n        /* \"#utility.yul\":2805:2806   */\n      0x00\n        /* \"#utility.yul\":2800:2803   */\n      dup4\n        /* \"#utility.yul\":2796:2807   */\n      add\n        /* \"#utility.yul\":2789:2844   */\n      mstore\n        /* \"#utility.yul\":2875:2882   */\n      0x6374696f6e000000000000000000000000000000000000000000000000000000\n        /* \"#utility.yul\":2870:2872   */\n      0x20\n        /* \"#utility.yul\":2865:2868   */\n      dup4\n        /* \"#utility.yul\":2861:2873   */\n      add\n        /* \"#utility.yul\":2854:2883   */\n      mstore\n        /* \"#utility.yul\":2909:2911   */\n      0x40\n        /* \"#utility.yul\":2904:2907   */\n      dup3\n        /* \"#utility.yul\":2900:2912   */\n      add\n        /* \"#utility.yul\":2893:2912   */\n      swap1\n      pop\n        /* \"#utility.yul\":2695:2918   */\n      swap2\n      swap1\n      pop\n      jump\t// out\n        /* \"#utility.yul\":2924:3242   */\n    tag_155:\n      0x00\n        /* \"#utility.yul\":3087:3154   */\n      tag_157\n        /* \"#utility.yul\":3151:3153   */\n      0x14\n        /* \"#utility.yul\":3146:3149   */\n      dup4\n        /* \"#utility.yul\":3087:3154   */\n      tag_139\n      jump\t// in\n    tag_157:\n        /* \"#utility.yul\":3080:3154   */\n      swap2\n      pop\n        /* \"#utility.yul\":3184:3206   */\n      0x496e76616c69642063616e646964617465204944000000000000000000000000\n        /* \"#utility.yul\":3180:3181   */\n      0x00\n        /* \"#utility.yul\":3175:3178   */\n      dup4\n        /* \"#utility.yul\":3171:3182   */\n      add\n        /* \"#utility.yul\":3164:3207   */\n      mstore\n        /* \"#utility.yul\":3233:3235   */\n      0x20\n        /* \"#utility.yul\":3228:3231   */\n      dup3\n        /* \"#utility.yul\":3224:3236   */\n      add\n        /* \"#utility.yul\":3217:3236   */\n      swap1\n      pop\n        /* \"#utility.yul\":3070:3242   */\n      swap2\n      swap1\n      pop\n      jump\t// out\n        /* \"#utility.yul\":3248:3578   */\n    tag_158:\n      0x00\n        /* \"#utility.yul\":3411:3478   */\n      tag_160\n        /* \"#utility.yul\":3475:3477   */\n      0x20\n        /* \"#utility.yul\":3470:3473   */\n      dup4\n        /* \"#utility.yul\":3411:3478   */\n      tag_139\n      jump\t// in\n    tag_160:\n        /* \"#utility.yul\":3404:3478   */\n      swap2\n      pop\n        /* \"#utility.yul\":3508:3542   */\n      0x4e6577206f776e65722063616e6e6f74206265207a65726f2061646472657373\n        /* \"#utility.yul\":3504:3505   */\n      0x00\n        /* \"#utility.yul\":3499:3502   */\n      dup4\n        /* \"#utility.yul\":3495:3506   */\n      add\n        /* \"#utility.yul\":3488:3543   */\n      mstore\n        /* \"#utility.yul\":3569:3571   */\n      0x20\n        /* \"#utility.yul\":3564:3567   */\n      dup3\n        /* \"#utility.yul\":3560:3572   */\n      add\n        /* \"#utility.yul\":3553:3572   */\n      swap1\n      pop\n        /* \"#utility.yul\":3394:3578   */\n      swap2\n      swap1\n      pop\n      jump\t// out\n        /* \"#utility.yul\":3584:3904   */\n    tag_161:\n      0x00\n        /* \"#utility.yul\":3747:3814   */\n      tag_163\n        /* \"#utility.yul\":3811:3813   */\n      0x16\n        /* \"#utility.yul\":3806:3809   */\n      dup4\n        /* \"#utility.yul\":3747:3814   */\n      tag_139\n      jump\t// in\n    tag_163:\n        /* \"#utility.yul\":3740:3814   */\n      swap2\n      pop\n        /* \"#utility.yul\":3844:3868   */\n      0x596f75206861766520616c726561647920766f74656400000000000000000000\n        /* \"#utility.yul\":3840:3841   */\n      0x00\n        /* \"#utility.yul\":3835:3838   */\n      dup4\n        /* \"#utility.yul\":3831:3842   */\n      add\n        /* \"#utility.yul\":3824:3869   */\n      mstore\n        /* \"#utility.yul\":3895:3897   */\n      0x20\n        /* \"#utility.yul\":3890:3893   */\n      dup3\n        /* \"#utility.yul\":3886:3898   */\n      add\n        /* \"#utility.yul\":3879:3898   */\n      swap1\n      pop\n        /* \"#utility.yul\":3730:3904   */\n      swap2\n      swap1\n      pop\n      jump\t// out\n        /* \"#utility.yul\":3910:4028   */\n    tag_164:\n        /* \"#utility.yul\":3997:4021   */\n      tag_166\n        /* \"#utility.yul\":4015:4020   */\n      dup2\n        /* \"#utility.yul\":3997:4021   */\n      tag_167\n      jump\t// in\n    tag_166:\n        /* \"#utility.yul\":3992:3995   */\n      dup3\n        /* \"#utility.yul\":3985:4022   */\n      mstore\n        /* \"#utility.yul\":3975:4028   */\n      pop\n      pop\n      jump\t// out\n        /* \"#utility.yul\":4034:4256   */\n    tag_41:\n      0x00\n        /* \"#utility.yul\":4165:4167   */\n      0x20\n        /* \"#utility.yul\":4154:4163   */\n      dup3\n        /* \"#utility.yul\":4150:4168   */\n      add\n        /* \"#utility.yul\":4142:4168   */\n      swap1\n      pop\n        /* \"#utility.yul\":4178:4249   */\n      tag_169\n        /* \"#utility.yul\":4246:4247   */\n      0x00\n        /* \"#utility.yul\":4235:4244   */\n      dup4\n        /* \"#utility.yul\":4231:4248   */\n      add\n        /* \"#utility.yul\":4222:4228   */\n      dup5\n        /* \"#utility.yul\":4178:4249   */\n      tag_128\n      jump\t// in\n    tag_169:\n        /* \"#utility.yul\":4132:4256   */\n      swap3\n      swap2\n      pop\n      pop\n      jump\t// out\n        /* \"#utility.yul\":4262:4472   */\n    tag_47:\n      0x00\n        /* \"#utility.yul\":4387:4389   */\n      0x20\n        /* \"#utility.yul\":4376:4385   */\n      dup3\n        /* \"#utility.yul\":4372:4390   */\n      add\n        /* \"#utility.yul\":4364:4390   */\n      swap1\n      pop\n        /* \"#utility.yul\":4400:4465   */\n      tag_171\n        /* \"#utility.yul\":4462:4463   */\n      0x00\n        /* \"#utility.yul\":4451:4460   */\n      dup4\n        /* \"#utility.yul\":4447:4464   */\n      add\n        /* \"#utility.yul\":4438:4444   */\n      dup5\n        /* \"#utility.yul\":4400:4465   */\n      tag_132\n      jump\t// in\n    tag_171:\n        /* \"#utility.yul\":4354:4472   */\n      swap3\n      swap2\n      pop\n      pop\n      jump\t// out\n        /* \"#utility.yul\":4478:4811   */\n    tag_86:\n      0x00\n        /* \"#utility.yul\":4639:4641   */\n      0x20\n        /* \"#utility.yul\":4628:4637   */\n      dup3\n        /* \"#utility.yul\":4624:4642   */\n      add\n        /* \"#utility.yul\":4616:4642   */\n      swap1\n      pop\n        /* \"#utility.yul\":4688:4697   */\n      dup2\n        /* \"#utility.yul\":4682:4686   */\n      dup2\n        /* \"#utility.yul\":4678:4698   */\n      sub\n        /* \"#utility.yul\":4674:4675   */\n      0x00\n        /* \"#utility.yul\":4663:4672   */\n      dup4\n        /* \"#utility.yul\":4659:4676   */\n      add\n        /* \"#utility.yul\":4652:4699   */\n      mstore\n        /* \"#utility.yul\":4716:4804   */\n      tag_173\n        /* \"#utility.yul\":4799:4803   */\n      dup2\n        /* \"#utility.yul\":4790:4796   */\n      dup5\n        /* \"#utility.yul\":4782:4788   */\n      dup7\n        /* \"#utility.yul\":4716:4804   */\n      tag_136\n      jump\t// in\n    tag_173:\n        /* \"#utility.yul\":4708:4804   */\n      swap1\n      pop\n        /* \"#utility.yul\":4606:4811   */\n      swap4\n      swap3\n      pop\n      pop\n      pop\n      jump\t// out\n        /* \"#utility.yul\":4817:5240   */\n    tag_33:\n      0x00\n        /* \"#utility.yul\":4996:4998   */\n      0x40\n        /* \"#utility.yul\":4985:4994   */\n      dup3\n        /* \"#utility.yul\":4981:4999   */\n      add\n        /* \"#utility.yul\":4973:4999   */\n      swap1\n      pop\n        /* \"#utility.yul\":5045:5054   */\n      dup2\n        /* \"#utility.yul\":5039:5043   */\n      dup2\n        /* \"#utility.yul\":5035:5055   */\n      sub\n        /* \"#utility.yul\":5031:5032   */\n      0x00\n        /* \"#utility.yul\":5020:5029   */\n      dup4\n        /* \"#utility.yul\":5016:5033   */\n      add\n        /* \"#utility.yul\":5009:5056   */\n      mstore\n        /* \"#utility.yul\":5073:5151   */\n      tag_175\n        /* \"#utility.yul\":5146:5150   */\n      dup2\n        /* \"#utility.yul\":5137:5143   */\n      dup6\n        /* \"#utility.yul\":5073:5151   */\n      tag_144\n      jump\t// in\n    tag_175:\n        /* \"#utility.yul\":5065:5151   */\n      swap1\n      pop\n        /* \"#utility.yul\":5161:5233   */\n      tag_176\n        /* \"#utility.yul\":5229:5231   */\n      0x20\n        /* \"#utility.yul\":5218:5227   */\n      dup4\n        /* \"#utility.yul\":5214:5232   */\n      add\n        /* \"#utility.yul\":5205:5211   */\n      dup5\n        /* \"#utility.yul\":5161:5233   */\n      tag_164\n      jump\t// in\n    tag_176:\n        /* \"#utility.yul\":4963:5240   */\n      swap4\n      swap3\n      pop\n      pop\n      pop\n      jump\t// out\n        /* \"#utility.yul\":5246:5665   */\n    tag_80:\n      0x00\n        /* \"#utility.yul\":5450:5452   */\n      0x20\n        /* \"#utility.yul\":5439:5448   */\n      dup3\n        /* \"#utility.yul\":5435:5453   */\n      add\n        /* \"#utility.yul\":5427:5453   */\n      swap1\n      pop\n        /* \"#utility.yul\":5499:5508   */\n      dup2\n        /* \"#utility.yul\":5493:5497   */\n      dup2\n        /* \"#utility.yul\":5489:5509   */\n      sub\n        /* \"#utility.yul\":5485:5486   */\n      0x00\n        /* \"#utility.yul\":5474:5483   */\n      dup4\n        /* \"#utility.yul\":5470:5487   */\n      add\n        /* \"#utility.yul\":5463:5510   */\n      mstore\n        /* \"#utility.yul\":5527:5658   */\n      tag_178\n        /* \"#utility.yul\":5653:5657   */\n      dup2\n        /* \"#utility.yul\":5527:5658   */\n      tag_152\n      jump\t// in\n    tag_178:\n        /* \"#utility.yul\":5519:5658   */\n      swap1\n      pop\n        /* \"#utility.yul\":5417:5665   */\n      swap2\n      swap1\n      pop\n      jump\t// out\n        /* \"#utility.yul\":5671:6090   */\n    tag_58:\n      0x00\n        /* \"#utility.yul\":5875:5877   */\n      0x20\n        /* \"#utility.yul\":5864:5873   */\n      dup3\n        /* \"#utility.yul\":5860:5878   */\n      add\n        /* \"#utility.yul\":5852:5878   */\n      swap1\n      pop\n        /* \"#utility.yul\":5924:5933   */\n      dup2\n        /* \"#utility.yul\":5918:5922   */\n      dup2\n        /* \"#utility.yul\":5914:5934   */\n      sub\n        /* \"#utility.yul\":5910:5911   */\n      0x00\n        /* \"#utility.yul\":5899:5908   */\n      dup4\n        /* \"#utility.yul\":5895:5912   */\n      add\n        /* \"#utility.yul\":5888:5935   */\n      mstore\n        /* \"#utility.yul\":5952:6083   */\n      tag_180\n        /* \"#utility.yul\":6078:6082   */\n      dup2\n        /* \"#utility.yul\":5952:6083   */\n      tag_155\n      jump\t// in\n    tag_180:\n        /* \"#utility.yul\":5944:6083   */\n      swap1\n      pop\n        /* \"#utility.yul\":5842:6090   */\n      swap2\n      swap1\n      pop\n      jump\t// out\n        /* \"#utility.yul\":6096:6515   */\n    tag_93:\n      0x00\n        /* \"#utility.yul\":6300:6302   */\n      0x20\n        /* \"#utility.yul\":6289:6298   */\n      dup3\n        /* \"#utility.yul\":6285:6303   */\n      add\n        /* \"#utility.yul\":6277:6303   */\n      swap1\n      pop\n        /* \"#utility.yul\":6349:6358   */\n      dup2\n        /* \"#utility.yul\":6343:6347   */\n      dup2\n        /* \"#utility.yul\":6339:6359   */\n      sub\n        /* \"#utility.yul\":6335:6336   */\n      0x00\n        /* \"#utility.yul\":6324:6333   */\n      dup4\n        /* \"#utility.yul\":6320:6337   */\n      add\n        /* \"#utility.yul\":6313:6360   */\n      mstore\n        /* \"#utility.yul\":6377:6508   */\n      tag_182\n        /* \"#utility.yul\":6503:6507   */\n      dup2\n        /* \"#utility.yul\":6377:6508   */\n      tag_158\n      jump\t// in\n    tag_182:\n        /* \"#utility.yul\":6369:6508   */\n      swap1\n      pop\n        /* \"#utility.yul\":6267:6515   */\n      swap2\n      swap1\n      pop\n      jump\t// out\n        /* \"#utility.yul\":6521:6940   */\n    tag_54:\n      0x00\n        /* \"#utility.yul\":6725:6727   */\n      0x20\n        /* \"#utility.yul\":6714:6723   */\n      dup3\n        /* \"#utility.yul\":6710:6728   */\n      add\n        /* \"#utility.yul\":6702:6728   */\n      swap1\n      pop\n        /* \"#utility.yul\":6774:6783   */\n      dup2\n        /* \"#utility.yul\":6768:6772   */\n      dup2\n        /* \"#utility.yul\":6764:6784   */\n      sub\n        /* \"#utility.yul\":6760:6761   */\n      0x00\n        /* \"#utility.yul\":6749:6758   */\n      dup4\n        /* \"#utility.yul\":6745:6762   */\n      add\n        /* \"#utility.yul\":6738:6785   */\n      mstore\n        /* \"#utility.yul\":6802:6933   */\n      tag_184\n        /* \"#utility.yul\":6928:6932   */\n      dup2\n        /* \"#utility.yul\":6802:6933   */\n      tag_161\n      jump\t// in\n    tag_184:\n        /* \"#utility.yul\":6794:6933   */\n      swap1\n      pop\n        /* \"#utility.yul\":6692:6940   */\n      swap2\n      swap1\n      pop\n      jump\t// out\n        /* \"#utility.yul\":6946:7168   */\n    tag_20:\n      0x00\n        /* \"#utility.yul\":7077:7079   */\n      0x20\n        /* \"#utility.yul\":7066:7075   */\n      dup3\n        /* \"#utility.yul\":7062:7080   */\n      add\n        /* \"#utility.yul\":7054:7080   */\n      swap1\n      pop\n        /* \"#utility.yul\":7090:7161   */\n      tag_186\n        /* \"#utility.yul\":7158:7159   */\n      0x00\n        /* \"#utility.yul\":7147:7156   */\n      dup4\n        /* \"#utility.yul\":7143:7160   */\n      add\n        /* \"#utility.yul\":7134:7140   */\n      dup5\n        /* \"#utility.yul\":7090:7161   */\n      tag_164\n      jump\t// in\n    tag_186:\n        /* \"#utility.yul\":7044:7168   */\n      swap3\n      swap2\n      pop\n      pop\n      jump\t// out\n        /* \"#utility.yul\":7174:7707   */\n    tag_28:\n      0x00\n        /* \"#utility.yul\":7381:7383   */\n      0x60\n        /* \"#utility.yul\":7370:7379   */\n      dup3\n        /* \"#utility.yul\":7366:7384   */\n      add\n        /* \"#utility.yul\":7358:7384   */\n      swap1\n      pop\n        /* \"#utility.yul\":7394:7465   */\n      tag_188\n        /* \"#utility.yul\":7462:7463   */\n      0x00\n        /* \"#utility.yul\":7451:7460   */\n      dup4\n        /* \"#utility.yul\":7447:7464   */\n      add\n        /* \"#utility.yul\":7438:7444   */\n      dup7\n        /* \"#utility.yul\":7394:7465   */\n      tag_164\n      jump\t// in\n    tag_188:\n        /* \"#utility.yul\":7512:7521   */\n      dup2\n        /* \"#utility.yul\":7506:7510   */\n      dup2\n        /* \"#utility.yul\":7502:7522   */\n      sub\n        /* \"#utility.yul\":7497:7499   */\n      0x20\n        /* \"#utility.yul\":7486:7495   */\n      dup4\n        /* \"#utility.yul\":7482:7500   */\n      add\n        /* \"#utility.yul\":7475:7523   */\n      mstore\n        /* \"#utility.yul\":7540:7618   */\n      tag_189\n        /* \"#utility.yul\":7613:7617   */\n      dup2\n        /* \"#utility.yul\":7604:7610   */\n      dup6\n        /* \"#utility.yul\":7540:7618   */\n      tag_144\n      jump\t// in\n    tag_189:\n        /* \"#utility.yul\":7532:7618   */\n      swap1\n      pop\n        /* \"#utility.yul\":7628:7700   */\n      tag_190\n        /* \"#utility.yul\":7696:7698   */\n      0x40\n        /* \"#utility.yul\":7685:7694   */\n      dup4\n        /* \"#utility.yul\":7681:7699   */\n      add\n        /* \"#utility.yul\":7672:7678   */\n      dup5\n        /* \"#utility.yul\":7628:7700   */\n      tag_164\n      jump\t// in\n    tag_190:\n        /* \"#utility.yul\":7348:7707   */\n      swap5\n      swap4\n      pop\n      pop\n      pop\n      pop\n      jump\t// out\n        /* \"#utility.yul\":7713:7812   */\n    tag_147:\n      0x00\n        /* \"#utility.yul\":7799:7804   */\n      dup2\n        /* \"#utility.yul\":7793:7805   */\n      mload\n        /* \"#utility.yul\":7783:7805   */\n      swap1\n      pop\n        /* \"#utility.yul\":7772:7812   */\n      swap2\n      swap1\n      pop\n      jump\t// out\n        /* \"#utility.yul\":7818:7987   */\n    tag_139:\n      0x00\n        /* \"#utility.yul\":7936:7942   */\n      dup3\n        /* \"#utility.yul\":7931:7934   */\n      dup3\n        /* \"#utility.yul\":7924:7943   */\n      mstore\n        /* \"#utility.yul\":7976:7980   */\n      0x20\n        /* \"#utility.yul\":7971:7974   */\n      dup3\n        /* \"#utility.yul\":7967:7981   */\n      add\n        /* \"#utility.yul\":7952:7981   */\n      swap1\n      pop\n        /* \"#utility.yul\":7914:7987   */\n      swap3\n      swap2\n      pop\n      pop\n      jump\t// out\n        /* \"#utility.yul\":7993:8089   */\n    tag_131:\n      0x00\n        /* \"#utility.yul\":8059:8083   */\n      tag_194\n        /* \"#utility.yul\":8077:8082   */\n      dup3\n        /* \"#utility.yul\":8059:8083   */\n      tag_195\n      jump\t// in\n    tag_194:\n        /* \"#utility.yul\":8048:8083   */\n      swap1\n      pop\n        /* \"#utility.yul\":8038:8089   */\n      swap2\n      swap1\n      pop\n      jump\t// out\n        /* \"#utility.yul\":8095:8185   */\n    tag_135:\n      0x00\n        /* \"#utility.yul\":8172:8177   */\n      dup2\n        /* \"#utility.yul\":8165:8178   */\n      iszero\n        /* \"#utility.yul\":8158:8179   */\n      iszero\n        /* \"#utility.yul\":8147:8179   */\n      swap1\n      pop\n        /* \"#utility.yul\":8137:8185   */\n      swap2\n      swap1\n      pop\n      jump\t// out\n        /* \"#utility.yul\":8191:8317   */\n    tag_195:\n      0x00\n        /* \"#utility.yul\":8268:8310   */\n      0xffffffffffffffffffffffffffffffffffffffff\n        /* \"#utility.yul\":8261:8266   */\n      dup3\n        /* \"#utility.yul\":8257:8311   */\n      and\n        /* \"#utility.yul\":8246:8311   */\n      swap1\n      pop\n        /* \"#utility.yul\":8236:8317   */\n      swap2\n      swap1\n      pop\n      jump\t// out\n        /* \"#utility.yul\":8323:8400   */\n    tag_167:\n      0x00\n        /* \"#utility.yul\":8389:8394   */\n      dup2\n        /* \"#utility.yul\":8378:8394   */\n      swap1\n      pop\n        /* \"#utility.yul\":8368:8400   */\n      swap2\n      swap1\n      pop\n      jump\t// out\n        /* \"#utility.yul\":8406:8560   */\n    tag_141:\n        /* \"#utility.yul\":8490:8496   */\n      dup3\n        /* \"#utility.yul\":8485:8488   */\n      dup2\n        /* \"#utility.yul\":8480:8483   */\n      dup4\n        /* \"#utility.yul\":8467:8497   */\n      calldatacopy\n        /* \"#utility.yul\":8552:8553   */\n      0x00\n        /* \"#utility.yul\":8543:8549   */\n      dup4\n        /* \"#utility.yul\":8538:8541   */\n      dup4\n        /* \"#utility.yul\":8534:8550   */\n      add\n        /* \"#utility.yul\":8527:8554   */\n      mstore\n        /* \"#utility.yul\":8457:8560   */\n      pop\n      pop\n      pop\n      jump\t// out\n        /* \"#utility.yul\":8566:8873   */\n    tag_150:\n        /* \"#utility.yul\":8634:8635   */\n      0x00\n        /* \"#utility.yul\":8644:8757   */\n    tag_201:\n        /* \"#utility.yul\":8658:8664   */\n      dup4\n        /* \"#utility.yul\":8655:8656   */\n      dup2\n        /* \"#utility.yul\":8652:8665   */\n      lt\n        /* \"#utility.yul\":8644:8757   */\n      iszero\n      tag_203\n      jumpi\n        /* \"#utility.yul\":8743:8744   */\n      dup1\n        /* \"#utility.yul\":8738:8741   */\n      dup3\n        /* \"#utility.yul\":8734:8745   */\n      add\n        /* \"#utility.yul\":8728:8746   */\n      mload\n        /* \"#utility.yul\":8724:8725   */\n      dup2\n        /* \"#utility.yul\":8719:8722   */\n      dup5\n        /* \"#utility.yul\":8715:8726   */\n      add\n        /* \"#utility.yul\":8708:8747   */\n      mstore\n        /* \"#utility.yul\":8680:8682   */\n      0x20\n        /* \"#utility.yul\":8677:8678   */\n      dup2\n        /* \"#utility.yul\":8673:8683   */\n      add\n        /* \"#utility.yul\":8668:8683   */\n      swap1\n      pop\n        /* \"#utility.yul\":8644:8757   */\n      jump(tag_201)\n    tag_203:\n        /* \"#utility.yul\":8775:8781   */\n      dup4\n        /* \"#utility.yul\":8772:8773   */\n      dup2\n        /* \"#utility.yul\":8769:8782   */\n      gt\n        /* \"#utility.yul\":8766:8768   */\n      iszero\n      tag_204\n      jumpi\n        /* \"#utility.yul\":8855:8856   */\n      0x00\n        /* \"#utility.yul\":8846:8852   */\n      dup5\n        /* \"#utility.yul\":8841:8844   */\n      dup5\n        /* \"#utility.yul\":8837:8853   */\n      add\n        /* \"#utility.yul\":8830:8857   */\n      mstore\n        /* \"#utility.yul\":8766:8768   */\n    tag_204:\n        /* \"#utility.yul\":8615:8873   */\n      pop\n      pop\n      pop\n      pop\n      jump\t// out\n        /* \"#utility.yul\":8879:9199   */\n    tag_63:\n      0x00\n        /* \"#utility.yul\":8960:8961   */\n      0x02\n        /* \"#utility.yul\":8954:8958   */\n      dup3\n        /* \"#utility.yul\":8950:8962   */\n      div\n        /* \"#utility.yul\":8940:8962   */\n      swap1\n      pop\n        /* \"#utility.yul\":9007:9008   */\n      0x01\n        /* \"#utility.yul\":9001:9005   */\n      dup3\n        /* \"#utility.yul\":8997:9009   */\n      and\n        /* \"#utility.yul\":9028:9046   */\n      dup1\n        /* \"#utility.yul\":9018:9020   */\n      tag_206\n      jumpi\n        /* \"#utility.yul\":9084:9088   */\n      0x7f\n        /* \"#utility.yul\":9076:9082   */\n      dup3\n        /* \"#utility.yul\":9072:9089   */\n      and\n        /* \"#utility.yul\":9062:9089   */\n      swap2\n      pop\n        /* \"#utility.yul\":9018:9020   */\n    tag_206:\n        /* \"#utility.yul\":9146:9148   */\n      0x20\n        /* \"#utility.yul\":9138:9144   */\n      dup3\n        /* \"#utility.yul\":9135:9149   */\n      lt\n        /* \"#utility.yul\":9115:9133   */\n      dup2\n        /* \"#utility.yul\":9112:9150   */\n      eq\n        /* \"#utility.yul\":9109:9111   */\n      iszero\n      tag_207\n      jumpi\n        /* \"#utility.yul\":9165:9183   */\n      tag_208\n      tag_209\n      jump\t// in\n    tag_208:\n        /* \"#utility.yul\":9109:9111   */\n    tag_207:\n        /* \"#utility.yul\":8930:9199   */\n      pop\n      swap2\n      swap1\n      pop\n      jump\t// out\n        /* \"#utility.yul\":9205:9438   */\n    tag_60:\n      0x00\n        /* \"#utility.yul\":9267:9291   */\n      tag_211\n        /* \"#utility.yul\":9285:9290   */\n      dup3\n        /* \"#utility.yul\":9267:9291   */\n      tag_167\n      jump\t// in\n    tag_211:\n        /* \"#utility.yul\":9258:9291   */\n      swap2\n      pop\n        /* \"#utility.yul\":9313:9379   */\n      0xffffffffffffffffffffffffffffffffffffffffffffffffffffffffffffffff\n        /* \"#utility.yul\":9306:9311   */\n      dup3\n        /* \"#utility.yul\":9303:9380   */\n      eq\n        /* \"#utility.yul\":9300:9302   */\n      iszero\n      tag_212\n      jumpi\n        /* \"#utility.yul\":9383:9401   */\n      tag_213\n      tag_214\n      jump\t// in\n    tag_213:\n        /* \"#utility.yul\":9300:9302   */\n    tag_212:\n        /* \"#utility.yul\":9430:9431   */\n      0x01\n        /* \"#utility.yul\":9423:9428   */\n      dup3\n        /* \"#utility.yul\":9419:9432   */\n      add\n        /* \"#utility.yul\":9412:9432   */\n      swap1\n      pop\n        /* \"#utility.yul\":9248:9438   */\n      swap2\n      swap1\n      pop\n      jump\t// out\n        /* \"#utility.yul\":9444:9624   */\n    tag_214:\n        /* \"#utility.yul\":9492:9569   */\n      0x4e487b7100000000000000000000000000000000000000000000000000000000\n        /* \"#utility.yul\":9489:9490   */\n      0x00\n        /* \"#utility.yul\":9482:9570   */\n      mstore\n        /* \"#utility.yul\":9589:9593   */\n      0x11\n        /* \"#utility.yul\":9586:9587   */\n      0x04\n        /* \"#utility.yul\":9579:9594   */\n      mstore\n        /* \"#utility.yul\":9613:9617   */\n      0x24\n        /* \"#utility.yul\":9610:9611   */\n      0x00\n        /* \"#utility.yul\":9603:9618   */\n      revert\n        /* \"#utility.yul\":9630:9810   */\n    tag_209:\n        /* \"#utility.yul\":9678:9755   */\n      0x4e487b7100000000000000000000000000000000000000000000000000000000\n        /* \"#utility.yul\":9675:9676   */\n      0x00\n        /* \"#utility.yul\":9668:9756   */\n      mstore\n        /* \"#utility.yul\":9775:9779   */\n      0x22\n        /* \"#utility.yul\":9772:9773   */\n      0x04\n        /* \"#utility.yul\":9765:9780   */\n      mstore\n        /* \"#utility.yul\":9799:9803   */\n      0x24\n        /* \"#utility.yul\":9796:9797   */\n      0x00\n        /* \"#utility.yul\":9789:9804   */\n      revert\n        /* \"#utility.yul\":9816:9918   */\n    tag_143:\n      0x00\n        /* \"#utility.yul\":9908:9910   */\n      0x1f\n        /* \"#utility.yul\":9904:9911   */\n      not\n        /* \"#utility.yul\":9899:9901   */\n      0x1f\n        /* \"#utility.yul\":9892:9897   */\n      dup4\n        /* \"#utility.yul\":9888:9902   */\n      add\n        /* \"#utility.yul\":9884:9912   */\n      and\n        /* \"#utility.yul\":9874:9912   */\n      swap1\n      pop\n        /* \"#utility.yul\":9864:9918   */\n      swap2\n      swap1\n      pop\n      jump\t// out\n        /* \"#utility.yul\":9924:10046   */\n    tag_108:\n        /* \"#utility.yul\":9997:10021   */\n      tag_219\n        /* \"#utility.yul\":10015:10020   */\n      dup2\n        /* \"#utility.yul\":9997:10021   */\n      tag_131\n      jump\t// in\n    tag_219:\n        /* \"#utility.yul\":9990:9995   */\n      dup2\n        /* \"#utility.yul\":9987:10022   */\n      eq\n        /* \"#utility.yul\":9977:9979   */\n      tag_220\n      jumpi\n        /* \"#utility.yul\":10036:10037   */\n      0x00\n        /* \"#utility.yul\":10033:10034   */\n      dup1\n        /* \"#utility.yul\":10026:10038   */\n      revert\n        /* \"#utility.yul\":9977:9979   */\n    tag_220:\n        /* \"#utility.yul\":9967:10046   */\n      pop\n      jump\t// out\n        /* \"#utility.yul\":10052:10174   */\n    tag_117:\n        /* \"#utility.yul\":10125:10149   */\n      tag_222\n        /* \"#utility.yul\":10143:10148   */\n      dup2\n        /* \"#utility.yul\":10125:10149   */\n      tag_167\n      jump\t// in\n    tag_222:\n        /* \"#utility.yul\":10118:10123   */\n      dup2\n        /* \"#utility.yul\":10115:10150   */\n      eq\n        /* \"#utility.yul\":10105:10107   */\n      tag_223\n      jumpi\n        /* \"#utility.yul\":10164:10165   */\n      0x00\n        /* \"#utility.yul\":10161:10162   */\n      dup1\n        /* \"#utility.yul\":10154:10166   */\n      revert\n        /* \"#utility.yul\":10105:10107   */\n    tag_223:\n        /* \"#utility.yul\":10095:10174   */\n      pop\n      jump\t// out\n\n    auxdata: 0xa2646970667358221220ad7ee4f8e1e8bd9a7fbff50671d711a2b046c1042c9c2b963853c246f4f200ca64736f6c63430008000033\n}\n",
				"bytecode": {
					"linkReferences": {},
					"object": "608060405234801561001057600080fd5b50336000806101000a81548173ffffffffffffffffffffffffffffffffffffffff021916908373ffffffffffffffffffffffffffffffffffffffff160217905550610f9c806100606000396000f3fe608060405234801561001057600080fd5b50600436106100935760003560e01c806335b8e8201161006657806335b8e82014610122578063462e91ec146101535780638da5cb5b1461016f578063a3ec138d1461018d578063f2fde38b146101bd57610093565b80630121b93f146100985780630deb56ab146100b45780632d35a8a2146100d25780633477ee2e146100f0575b600080fd5b6100b260048036038101906100ad9190610a63565b6101d9565b005b6100bc610382565b6040516100c99190610d4f565b60405180910390f35b6100da61038c565b6040516100e79190610d4f565b60405180910390f35b61010a60048036038101906101059190610a63565b610392565b60405161011993929190610d6a565b60405180910390f35b61013c60048036038101906101379190610a63565b610444565b60405161014a929190610c9f565b60405180910390f35b61016d60048036038101906101689190610a1e565b61054e565b005b6101776106df565b6040516101849190610c45565b60405180910390f35b6101a760048036038101906101a291906109f5565b610703565b6040516101b49190610c60565b60405180910390f35b6101d760048036038101906101d291906109f5565b610723565b005b600260003373ffffffffffffffffffffffffffffffffffffffff1673ffffffffffffffffffffffffffffffffffffffff16815260200190815260200160002060009054906101000a900460ff1615610266576040517f08c379a000000000000000000000000000000000000000000000000000000000815260040161025d90610d2f565b60405180910390fd5b60008111801561027857506003548111155b6102b7576040517f08c379a00000000000000000000000000000000000000000000000000000000081526004016102ae90610cef565b60405180910390fd5b6001600260003373ffffffffffffffffffffffffffffffffffffffff1673ffffffffffffffffffffffffffffffffffffffff16815260200190815260200160002060006101000a81548160ff02191690831515021790555060016000828152602001908152602001600020600201600081548092919061033690610e80565b9190505550803373ffffffffffffffffffffffffffffffffffffffff167fa36cc2bebb74db33e9f88110a07ef56e1b31b24b4c4f51b54b1664266e29f45b60405160405180910390a350565b6000600354905090565b60035481565b60016020528060005260406000206000915090508060000154908060010180546103bb90610e4e565b80601f01602080910402602001604051908101604052809291908181526020018280546103e790610e4e565b80156104345780601f1061040957610100808354040283529160200191610434565b820191906000526020600020905b81548152906001019060200180831161041757829003601f168201915b5050505050908060020154905083565b60606000808311801561045957506003548311155b610498576040517f08c379a000000000000000000000000000000000000000000000000000000000815260040161048f90610cef565b60405180910390fd5b60006001600085815260200190815260200160002090508060010181600201548180546104c490610e4e565b80601f01602080910402602001604051908101604052809291908181526020018280546104f090610e4e565b801561053d5780601f106105125761010080835404028352916020019161053d565b820191906000526020600020905b81548152906001019060200180831161052057829003601f168201915b505050505091509250925050915091565b60008054906101000a900473ffffffffffffffffffffffffffffffffffffffff1673ffffffffffffffffffffffffffffffffffffffff163373ffffffffffffffffffffffffffffffffffffffff16146105dc576040517f08c379a00000000000000000000000000000000000000000000000000000000081526004016105d390610ccf565b60405180910390fd5b600360008154809291906105ef90610e80565b91905055506040518060600160405280600354815260200183838080601f016020809104026020016040519081016040528093929190818152602001838380828437600081840152601f19601f82011690508083019250505050505050815260200160008152506001600060035481526020019081526020016000206000820151816000015560208201518160010190805190602001906106919291906108de565b50604082015181600201559050506003547fe83b2a43e7e82d975c8a0a6d2f045153c869e111136a34d1889ab7b598e396a383836040516106d3929190610c7b565b60405180910390a25050565b60008054906101000a900473ffffffffffffffffffffffffffffffffffffffff1681565b60026020528060005260406000206000915054906101000a900460ff1681565b60008054906101000a900473ffffffffffffffffffffffffffffffffffffffff1673ffffffffffffffffffffffffffffffffffffffff163373ffffffffffffffffffffffffffffffffffffffff16146107b1576040517f08c379a00000000000000000000000000000000000000000000000000000000081526004016107a890610ccf565b60405180910390fd5b600073ffffffffffffffffffffffffffffffffffffffff168173ffffffffffffffffffffffffffffffffffffffff161415610821576040517f08c379a000000000000000000000000000000000000000000000000000000000815260040161081890610d0f565b60405180910390fd5b8073ffffffffffffffffffffffffffffffffffffffff1660008054906101000a900473ffffffffffffffffffffffffffffffffffffffff1673ffffffffffffffffffffffffffffffffffffffff167f0d18b5fd22306e373229b9439188228edca81207d1667f604daf6cef8aa3ee6760405160405180910390a3806000806101000a81548173ffffffffffffffffffffffffffffffffffffffff021916908373ffffffffffffffffffffffffffffffffffffffff16021790555050565b8280546108ea90610e4e565b90600052602060002090601f01602090048101928261090c5760008555610953565b82601f1061092557805160ff1916838001178555610953565b82800160010185558215610953579182015b82811115610952578251825591602001919060010190610937565b5b5090506109609190610964565b5090565b5b8082111561097d576000816000905550600101610965565b5090565b60008135905061099081610f38565b92915050565b60008083601f8401126109a857600080fd5b8235905067ffffffffffffffff8111156109c157600080fd5b6020830191508360018202830111156109d957600080fd5b9250929050565b6000813590506109ef81610f4f565b92915050565b600060208284031215610a0757600080fd5b6000610a1584828501610981565b91505092915050565b60008060208385031215610a3157600080fd5b600083013567ffffffffffffffff811115610a4b57600080fd5b610a5785828601610996565b92509250509250929050565b600060208284031215610a7557600080fd5b6000610a83848285016109e0565b91505092915050565b610a9581610dc4565b82525050565b610aa481610dd6565b82525050565b6000610ab68385610db3565b9350610ac3838584610e0c565b610acc83610f27565b840190509392505050565b6000610ae282610da8565b610aec8185610db3565b9350610afc818560208601610e1b565b610b0581610f27565b840191505092915050565b6000610b1d602583610db3565b91507f4f6e6c7920746865206f776e65722063616e2063616c6c20746869732066756e60008301527f6374696f6e0000000000000000000000000000000000000000000000000000006020830152604082019050919050565b6000610b83601483610db3565b91507f496e76616c69642063616e6469646174652049440000000000000000000000006000830152602082019050919050565b6000610bc3602083610db3565b91507f4e6577206f776e65722063616e6e6f74206265207a65726f20616464726573736000830152602082019050919050565b6000610c03601683610db3565b91507f596f75206861766520616c726561647920766f746564000000000000000000006000830152602082019050919050565b610c3f81610e02565b82525050565b6000602082019050610c5a6000830184610a8c565b92915050565b6000602082019050610c756000830184610a9b565b92915050565b60006020820190508181036000830152610c96818486610aaa565b90509392505050565b60006040820190508181036000830152610cb98185610ad7565b9050610cc86020830184610c36565b9392505050565b60006020820190508181036000830152610ce881610b10565b9050919050565b60006020820190508181036000830152610d0881610b76565b9050919050565b60006020820190508181036000830152610d2881610bb6565b9050919050565b60006020820190508181036000830152610d4881610bf6565b9050919050565b6000602082019050610d646000830184610c36565b92915050565b6000606082019050610d7f6000830186610c36565b8181036020830152610d918185610ad7565b9050610da06040830184610c36565b949350505050565b600081519050919050565b600082825260208201905092915050565b6000610dcf82610de2565b9050919050565b60008115159050919050565b600073ffffffffffffffffffffffffffffffffffffffff82169050919050565b6000819050919050565b82818337600083830152505050565b60005b83811015610e39578082015181840152602081019050610e1e565b83811115610e48576000848401525b50505050565b60006002820490506001821680610e6657607f821691505b60208210811415610e7a57610e79610ef8565b5b50919050565b6000610e8b82610e02565b91507fffffffffffffffffffffffffffffffffffffffffffffffffffffffffffffffff821415610ebe57610ebd610ec9565b5b600182019050919050565b7f4e487b7100000000000000000000000000000000000000000000000000000000600052601160045260246000fd5b7f4e487b7100000000000000000000000000000000000000000000000000000000600052602260045260246000fd5b6000601f19601f8301169050919050565b610f4181610dc4565b8114610f4c57600080fd5b50565b610f5881610e02565b8114610f6357600080fd5b5056fea2646970667358221220ad7ee4f8e1e8bd9a7fbff50671d711a2b046c1042c9c2b963853c246f4f200ca64736f6c63430008000033",
					"opcodes": "PUSH1 0x80 PUSH1 0x40 MSTORE CALLVALUE DUP1 ISZERO PUSH2 0x10 JUMPI PUSH1 0x0 DUP1 REVERT JUMPDEST POP CALLER PUSH1 0x0 DUP1 PUSH2 0x100 EXP DUP2 SLOAD DUP2 PUSH20 0xFFFFFFFFFFFFFFFFFFFFFFFFFFFFFFFFFFFFFFFF MUL NOT AND SWAP1 DUP4 PUSH20 0xFFFFFFFFFFFFFFFFFFFFFFFFFFFFFFFFFFFFFFFF AND MUL OR SWAP1 SSTORE POP PUSH2 0xF9C DUP1 PUSH2 0x60 PUSH1 0x0 CODECOPY PUSH1 0x0 RETURN INVALID PUSH1 0x80 PUSH1 0x40 MSTORE CALLVALUE DUP1 ISZERO PUSH2 0x10 JUMPI PUSH1 0x0 DUP1 REVERT JUMPDEST POP PUSH1 0x4 CALLDATASIZE LT PUSH2 0x93 JUMPI PUSH1 0x0 CALLDATALOAD PUSH1 0xE0 SHR DUP1 PUSH4 0x35B8E820 GT PUSH2 0x66 JUMPI DUP1 PUSH4 0x35B8E820 EQ PUSH2 0x122 JUMPI DUP1 PUSH4 0x462E91EC EQ PUSH2 0x153 JUMPI DUP1 PUSH4 0x8DA5CB5B EQ PUSH2 0x16F JUMPI DUP1 PUSH4 0xA3EC138D EQ PUSH2 0x18D JUMPI DUP1 PUSH4 0xF2FDE38B EQ PUSH2 0x1BD JUMPI PUSH2 0x93 JUMP JUMPDEST DUP1 PUSH4 0x121B93F EQ PUSH2 0x98 JUMPI DUP1 PUSH4 0xDEB56AB EQ PUSH2 0xB4 JUMPI DUP1 PUSH4 0x2D35A8A2 EQ PUSH2 0xD2 JUMPI DUP1 PUSH4 0x3477EE2E EQ PUSH2 0xF0 JUMPI JUMPDEST PUSH1 0x0 DUP1 REVERT JUMPDEST PUSH2 0xB2 PUSH1 0x4 DUP1 CALLDATASIZE SUB DUP2 ADD SWAP1 PUSH2 0xAD SWAP2 SWAP1 PUSH2 0xA63 JUMP JUMPDEST PUSH2 0x1D9 JUMP JUMPDEST STOP JUMPDEST PUSH2 0xBC PUSH2 0x382 JUMP JUMPDEST PUSH1 0x40 MLOAD PUSH2 0xC9 SWAP2 SWAP1 PUSH2 0xD4F JUMP JUMPDEST PUSH1 0x40 MLOAD DUP1 SWAP2 SUB SWAP1 RETURN JUMPDEST PUSH2 0xDA PUSH2 0x38C JUMP JUMPDEST PUSH1 0x40 MLOAD PUSH2 0xE7 SWAP2 SWAP1 PUSH2 0xD4F JUMP JUMPDEST PUSH1 0x40 MLOAD DUP1 SWAP2 SUB SWAP1 RETURN JUMPDEST PUSH2 0x10A PUSH1 0x4 DUP1 CALLDATASIZE SUB DUP2 ADD SWAP1 PUSH2 0x105 SWAP2 SWAP1 PUSH2 0xA63 JUMP JUMPDEST PUSH2 0x392 JUMP JUMPDEST PUSH1 0x40 MLOAD PUSH2 0x119 SWAP4 SWAP3 SWAP2 SWAP1 PUSH2 0xD6A JUMP JUMPDEST PUSH1 0x40 MLOAD DUP1 SWAP2 SUB SWAP1 RETURN JUMPDEST PUSH2 0x13C PUSH1 0x4 DUP1 CALLDATASIZE SUB DUP2 ADD SWAP1 PUSH2 0x137 SWAP2 SWAP1 PUSH2 0xA63 JUMP JUMPDEST PUSH2 0x444 JUMP JUMPDEST PUSH1 0x40 MLOAD PUSH2 0x14A SWAP3 SWAP2 SWAP1 PUSH2 0xC9F JUMP JUMPDEST PUSH1 0x40 MLOAD DUP1 SWAP2 SUB SWAP1 RETURN JUMPDEST PUSH2 0x16D PUSH1 0x4 DUP1 CALLDATASIZE SUB DUP2 ADD SWAP1 PUSH2 0x168 SWAP2 SWAP1 PUSH2 0xA1E JUMP JUMPDEST PUSH2 0x54E JUMP JUMPDEST STOP JUMPDEST PUSH2 0x177 PUSH2 0x6DF JUMP JUMPDEST PUSH1 0x40 MLOAD PUSH2 0x184 SWAP2 SWAP1 PUSH2 0xC45 JUMP JUMPDEST PUSH1 0x40 MLOAD DUP1 SWAP2 SUB SWAP1 RETURN JUMPDEST PUSH2 0x1A7 PUSH1 0x4 DUP1 CALLDATASIZE SUB DUP2 ADD SWAP1 PUSH2 0x1A2 SWAP2 SWAP1 PUSH2 0x9F5 JUMP JUMPDEST PUSH2 0x703 JUMP JUMPDEST PUSH1 0x40 MLOAD PUSH2 0x1B4 SWAP2 SWAP1 PUSH2 0xC60 JUMP JUMPDEST PUSH1 0x40 MLOAD DUP1 SWAP2 SUB SWAP1 RETURN JUMPDEST PUSH2 0x1D7 PUSH1 0x4 DUP1 CALLDATASIZE SUB DUP2 ADD SWAP1 PUSH2 0x1D2 SWAP2 SWAP1 PUSH2 0x9F5 JUMP JUMPDEST PUSH2 0x723 JUMP JUMPDEST STOP JUMPDEST PUSH1 0x2 PUSH1 0x0 CALLER PUSH20 0xFFFFFFFFFFFFFFFFFFFFFFFFFFFFFFFFFFFFFFFF AND PUSH20 0xFFFFFFFFFFFFFFFFFFFFFFFFFFFFFFFFFFFFFFFF AND DUP2 MSTORE PUSH1 0x20 ADD SWAP1 DUP2 MSTORE PUSH1 0x20 ADD PUSH1 0x0 KECCAK256 PUSH1 0x0 SWAP1 SLOAD SWAP1 PUSH2 0x100 EXP SWAP1 DIV PUSH1 0xFF AND ISZERO PUSH2 0x266 JUMPI PUSH1 0x40 MLOAD PUSH32 0x8C379A000000000000000000000000000000000000000000000000000000000 DUP2 MSTORE PUSH1 0x4 ADD PUSH2 0x25D SWAP1 PUSH2 0xD2F JUMP JUMPDEST PUSH1 0x40 MLOAD DUP1 SWAP2 SUB SWAP1 REVERT JUMPDEST PUSH1 0x0 DUP2 GT DUP1 ISZERO PUSH2 0x278 JUMPI POP PUSH1 0x3 SLOAD DUP2 GT ISZERO JUMPDEST PUSH2 0x2B7 JUMPI PUSH1 0x40 MLOAD PUSH32 0x8C379A000000000000000000000000000000000000000000000000000000000 DUP2 MSTORE PUSH1 0x4 ADD PUSH2 0x2AE SWAP1 PUSH2 0xCEF JUMP JUMPDEST PUSH1 0x40 MLOAD DUP1 SWAP2 SUB SWAP1 REVERT JUMPDEST PUSH1 0x1 PUSH1 0x2 PUSH1 0x0 CALLER PUSH20 0xFFFFFFFFFFFFFFFFFFFFFFFFFFFFFFFFFFFFFFFF AND PUSH20 0xFFFFFFFFFFFFFFFFFFFFFFFFFFFFFFFFFFFFFFFF AND DUP2 MSTORE PUSH1 0x20 ADD SWAP1 DUP2 MSTORE PUSH1 0x20 ADD PUSH1 0x0 KECCAK256 PUSH1 0x0 PUSH2 0x100 EXP DUP2 SLOAD DUP2 PUSH1 0xFF MUL NOT AND SWAP1 DUP4 ISZERO ISZERO MUL OR SWAP1 SSTORE POP PUSH1 0x1 PUSH1 0x0 DUP3 DUP2 MSTORE PUSH1 0x20 ADD SWAP1 DUP2 MSTORE PUSH1 0x20 ADD PUSH1 0x0 KECCAK256 PUSH1 0x2 ADD PUSH1 0x0 DUP2 SLOAD DUP1 SWAP3 SWAP2 SWAP1 PUSH2 0x336 SWAP1 PUSH2 0xE80 JUMP JUMPDEST SWAP2 SWAP1 POP SSTORE POP DUP1 CALLER PUSH20 0xFFFFFFFFFFFFFFFFFFFFFFFFFFFFFFFFFFFFFFFF AND PUSH32 0xA36CC2BEBB74DB33E9F88110A07EF56E1B31B24B4C4F51B54B1664266E29F45B PUSH1 0x40 MLOAD PUSH1 0x40 MLOAD DUP1 SWAP2 SUB SWAP1 LOG3 POP JUMP JUMPDEST PUSH1 0x0 PUSH1 0x3 SLOAD SWAP1 POP SWAP1 JUMP JUMPDEST PUSH1 0x3 SLOAD DUP2 JUMP JUMPDEST PUSH1 0x1 PUSH1 0x20 MSTORE DUP1 PUSH1 0x0 MSTORE PUSH1 0x40 PUSH1 0x0 KECCAK256 PUSH1 0x0 SWAP2 POP SWAP1 POP DUP1 PUSH1 0x0 ADD SLOAD SWAP1 DUP1 PUSH1 0x1 ADD DUP1 SLOAD PUSH2 0x3BB SWAP1 PUSH2 0xE4E JUMP JUMPDEST DUP1 PUSH1 0x1F ADD PUSH1 0x20 DUP1 SWAP2 DIV MUL PUSH1 0x20 ADD PUSH1 0x40 MLOAD SWAP1 DUP2 ADD PUSH1 0x40 MSTORE DUP1 SWAP3 SWAP2 SWAP1 DUP2 DUP2 MSTORE PUSH1 0x20 ADD DUP3 DUP1 SLOAD PUSH2 0x3E7 SWAP1 PUSH2 0xE4E JUMP JUMPDEST DUP1 ISZERO PUSH2 0x434 JUMPI DUP1 PUSH1 0x1F LT PUSH2 0x409 JUMPI PUSH2 0x100 DUP1 DUP4 SLOAD DIV MUL DUP4 MSTORE SWAP2 PUSH1 0x20 ADD SWAP2 PUSH2 0x434 JUMP JUMPDEST DUP3 ADD SWAP2 SWAP1 PUSH1 0x0 MSTORE PUSH1 0x20 PUSH1 0x0 KECCAK256 SWAP1 JUMPDEST DUP2 SLOAD DUP2 MSTORE SWAP1 PUSH1 0x1 ADD SWAP1 PUSH1 0x20 ADD DUP1 DUP4 GT PUSH2 0x417 JUMPI DUP3 SWAP1 SUB PUSH1 0x1F AND DUP3 ADD SWAP2 JUMPDEST POP POP POP POP POP SWAP1 DUP1 PUSH1 0x2 ADD SLOAD SWAP1 POP DUP4 JUMP JUMPDEST PUSH1 0x60 PUSH1 0x0 DUP1 DUP4 GT DUP1 ISZERO PUSH2 0x459 JUMPI POP PUSH1 0x3 SLOAD DUP4 GT ISZERO JUMPDEST PUSH2 0x498 JUMPI PUSH1 0x40 MLOAD PUSH32 0x8C379A000000000000000000000000000000000000000000000000000000000 DUP2 MSTORE PUSH1 0x4 ADD PUSH2 0x48F SWAP1 PUSH2 0xCEF JUMP JUMPDEST PUSH1 0x40 MLOAD DUP1 SWAP2 SUB SWAP1 REVERT JUMPDEST PUSH1 0x0 PUSH1 0x1 PUSH1 0x0 DUP6 DUP2 MSTORE PUSH1 0x20 ADD SWAP1 DUP2 MSTORE PUSH1 0x20 ADD PUSH1 0x0 KECCAK256 SWAP1 POP DUP1 PUSH1 0x1 ADD DUP2 PUSH1 0x2 ADD SLOAD DUP2 DUP1 SLOAD PUSH2 0x4C4 SWAP1 PUSH2 0xE4E JUMP JUMPDEST DUP1 PUSH1 0x1F ADD PUSH1 0x20 DUP1 SWAP2 DIV MUL PUSH1 0x20 ADD PUSH1 0x40 MLOAD SWAP1 DUP2 ADD PUSH1 0x40 MSTORE DUP1 SWAP3 SWAP2 SWAP1 DUP2 DUP2 MSTORE PUSH1 0x20 ADD DUP3 DUP1 SLOAD PUSH2 0x4F0 SWAP1 PUSH2 0xE4E JUMP JUMPDEST DUP1 ISZERO PUSH2 0x53D JUMPI DUP1 PUSH1 0x1F LT PUSH2 0x512 JUMPI PUSH2 0x100 DUP1 DUP4 SLOAD DIV MUL DUP4 MSTORE SWAP2 PUSH1 0x20 ADD SWAP2 PUSH2 0x53D JUMP JUMPDEST DUP3 ADD SWAP2 SWAP1 PUSH1 0x0 MSTORE PUSH1 0x20 PUSH1 0x0 KECCAK256 SWAP1 JUMPDEST DUP2 SLOAD DUP2 MSTORE SWAP1 PUSH1 0x1 ADD SWAP1 PUSH1 0x20 ADD DUP1 DUP4 GT PUSH2 0x520 JUMPI DUP3 SWAP1 SUB PUSH1 0x1F AND DUP3 ADD SWAP2 JUMPDEST POP POP POP POP POP SWAP2 POP SWAP3 POP SWAP3 POP POP SWAP2 POP SWAP2 JUMP JUMPDEST PUSH1 0x0 DUP1 SLOAD SWAP1 PUSH2 0x100 EXP SWAP1 DIV PUSH20 0xFFFFFFFFFFFFFFFFFFFFFFFFFFFFFFFFFFFFFFFF AND PUSH20 0xFFFFFFFFFFFFFFFFFFFFFFFFFFFFFFFFFFFFFFFF AND CALLER PUSH20 0xFFFFFFFFFFFFFFFFFFFFFFFFFFFFFFFFFFFFFFFF AND EQ PUSH2 0x5DC JUMPI PUSH1 0x40 MLOAD PUSH32 0x8C379A000000000000000000000000000000000000000000000000000000000 DUP2 MSTORE PUSH1 0x4 ADD PUSH2 0x5D3 SWAP1 PUSH2 0xCCF JUMP JUMPDEST PUSH1 0x40 MLOAD DUP1 SWAP2 SUB SWAP1 REVERT JUMPDEST PUSH1 0x3 PUSH1 0x0 DUP2 SLOAD DUP1 SWAP3 SWAP2 SWAP1 PUSH2 0x5EF SWAP1 PUSH2 0xE80 JUMP JUMPDEST SWAP2 SWAP1 POP SSTORE POP PUSH1 0x40 MLOAD DUP1 PUSH1 0x60 ADD PUSH1 0x40 MSTORE DUP1 PUSH1 0x3 SLOAD DUP2 MSTORE PUSH1 0x20 ADD DUP4 DUP4 DUP1 DUP1 PUSH1 0x1F ADD PUSH1 0x20 DUP1 SWAP2 DIV MUL PUSH1 0x20 ADD PUSH1 0x40 MLOAD SWAP1 DUP2 ADD PUSH1 0x40 MSTORE DUP1 SWAP4 SWAP3 SWAP2 SWAP1 DUP2 DUP2 MSTORE PUSH1 0x20 ADD DUP4 DUP4 DUP1 DUP3 DUP5 CALLDATACOPY PUSH1 0x0 DUP2 DUP5 ADD MSTORE PUSH1 0x1F NOT PUSH1 0x1F DUP3 ADD AND SWAP1 POP DUP1 DUP4 ADD SWAP3 POP POP POP POP POP POP POP DUP2 MSTORE PUSH1 0x20 ADD PUSH1 0x0 DUP2 MSTORE POP PUSH1 0x1 PUSH1 0x0 PUSH1 0x3 SLOAD DUP2 MSTORE PUSH1 0x20 ADD SWAP1 DUP2 MSTORE PUSH1 0x20 ADD PUSH1 0x0 KECCAK256 PUSH1 0x0 DUP3 ADD MLOAD DUP2 PUSH1 0x0 ADD SSTORE PUSH1 0x20 DUP3 ADD MLOAD DUP2 PUSH1 0x1 ADD SWAP1 DUP1 MLOAD SWAP1 PUSH1 0x20 ADD SWAP1 PUSH2 0x691 SWAP3 SWAP2 SWAP1 PUSH2 0x8DE JUMP JUMPDEST POP PUSH1 0x40 DUP3 ADD MLOAD DUP2 PUSH1 0x2 ADD SSTORE SWAP1 POP POP PUSH1 0x3 SLOAD PUSH32 0xE83B2A43E7E82D975C8A0A6D2F045153C869E111136A34D1889AB7B598E396A3 DUP4 DUP4 PUSH1 0x40 MLOAD PUSH2 0x6D3 SWAP3 SWAP2 SWAP1 PUSH2 0xC7B JUMP JUMPDEST PUSH1 0x40 MLOAD DUP1 SWAP2 SUB SWAP1 LOG2 POP POP JUMP JUMPDEST PUSH1 0x0 DUP1 SLOAD SWAP1 PUSH2 0x100 EXP SWAP1 DIV PUSH20 0xFFFFFFFFFFFFFFFFFFFFFFFFFFFFFFFFFFFFFFFF AND DUP2 JUMP JUMPDEST PUSH1 0x2 PUSH1 0x20 MSTORE DUP1 PUSH1 0x0 MSTORE PUSH1 0x40 PUSH1 0x0 KECCAK256 PUSH1 0x0 SWAP2 POP SLOAD SWAP1 PUSH2 0x100 EXP SWAP1 DIV PUSH1 0xFF AND DUP2 JUMP JUMPDEST PUSH1 0x0 DUP1 SLOAD SWAP1 PUSH2 0x100 EXP SWAP1 DIV PUSH20 0xFFFFFFFFFFFFFFFFFFFFFFFFFFFFFFFFFFFFFFFF AND PUSH20 0xFFFFFFFFFFFFFFFFFFFFFFFFFFFFFFFFFFFFFFFF AND CALLER PUSH20 0xFFFFFFFFFFFFFFFFFFFFFFFFFFFFFFFFFFFFFFFF AND EQ PUSH2 0x7B1 JUMPI PUSH1 0x40 MLOAD PUSH32 0x8C379A000000000000000000000000000000000000000000000000000000000 DUP2 MSTORE PUSH1 0x4 ADD PUSH2 0x7A8 SWAP1 PUSH2 0xCCF JUMP JUMPDEST PUSH1 0x40 MLOAD DUP1 SWAP2 SUB SWAP1 REVERT JUMPDEST PUSH1 0x0 PUSH20 0xFFFFFFFFFFFFFFFFFFFFFFFFFFFFFFFFFFFFFFFF AND DUP2 PUSH20 0xFFFFFFFFFFFFFFFFFFFFFFFFFFFFFFFFFFFFFFFF AND EQ ISZERO PUSH2 0x821 JUMPI PUSH1 0x40 MLOAD PUSH32 0x8C379A000000000000000000000000000000000000000000000000000000000 DUP2 MSTORE PUSH1 0x4 ADD PUSH2 0x818 SWAP1 PUSH2 0xD0F JUMP JUMPDEST PUSH1 0x40 MLOAD DUP1 SWAP2 SUB SWAP1 REVERT JUMPDEST DUP1 PUSH20 0xFFFFFFFFFFFFFFFFFFFFFFFFFFFFFFFFFFFFFFFF AND PUSH1 0x0 DUP1 SLOAD SWAP1 PUSH2 0x100 EXP SWAP1 DIV PUSH20 0xFFFFFFFFFFFFFFFFFFFFFFFFFFFFFFFFFFFFFFFF AND PUSH20 0xFFFFFFFFFFFFFFFFFFFFFFFFFFFFFFFFFFFFFFFF AND PUSH32 0xD18B5FD22306E373229B9439188228EDCA81207D1667F604DAF6CEF8AA3EE67 PUSH1 0x40 MLOAD PUSH1 0x40 MLOAD DUP1 SWAP2 SUB SWAP1 LOG3 DUP1 PUSH1 0x0 DUP1 PUSH2 0x100 EXP DUP2 SLOAD DUP2 PUSH20 0xFFFFFFFFFFFFFFFFFFFFFFFFFFFFFFFFFFFFFFFF MUL NOT AND SWAP1 DUP4 PUSH20 0xFFFFFFFFFFFFFFFFFFFFFFFFFFFFFFFFFFFFFFFF AND MUL OR SWAP1 SSTORE POP POP JUMP JUMPDEST DUP3 DUP1 SLOAD PUSH2 0x8EA SWAP1 PUSH2 0xE4E JUMP JUMPDEST SWAP1 PUSH1 0x0 MSTORE PUSH1 0x20 PUSH1 0x0 KECCAK256 SWAP1 PUSH1 0x1F ADD PUSH1 0x20 SWAP1 DIV DUP2 ADD SWAP3 DUP3 PUSH2 0x90C JUMPI PUSH1 0x0 DUP6 SSTORE PUSH2 0x953 JUMP JUMPDEST DUP3 PUSH1 0x1F LT PUSH2 0x925 JUMPI DUP1 MLOAD PUSH1 0xFF NOT AND DUP4 DUP1 ADD OR DUP6 SSTORE PUSH2 0x953 JUMP JUMPDEST DUP3 DUP1 ADD PUSH1 0x1 ADD DUP6 SSTORE DUP3 ISZERO PUSH2 0x953 JUMPI SWAP2 DUP3 ADD JUMPDEST DUP3 DUP2 GT ISZERO PUSH2 0x952 JUMPI DUP3 MLOAD DUP3 SSTORE SWAP2 PUSH1 0x20 ADD SWAP2 SWAP1 PUSH1 0x1 ADD SWAP1 PUSH2 0x937 JUMP JUMPDEST JUMPDEST POP SWAP1 POP PUSH2 0x960 SWAP2 SWAP1 PUSH2 0x964 JUMP JUMPDEST POP SWAP1 JUMP JUMPDEST JUMPDEST DUP1 DUP3 GT ISZERO PUSH2 0x97D JUMPI PUSH1 0x0 DUP2 PUSH1 0x0 SWAP1 SSTORE POP PUSH1 0x1 ADD PUSH2 0x965 JUMP JUMPDEST POP SWAP1 JUMP JUMPDEST PUSH1 0x0 DUP2 CALLDATALOAD SWAP1 POP PUSH2 0x990 DUP2 PUSH2 0xF38 JUMP JUMPDEST SWAP3 SWAP2 POP POP JUMP JUMPDEST PUSH1 0x0 DUP1 DUP4 PUSH1 0x1F DUP5 ADD SLT PUSH2 0x9A8 JUMPI PUSH1 0x0 DUP1 REVERT JUMPDEST DUP3 CALLDATALOAD SWAP1 POP PUSH8 0xFFFFFFFFFFFFFFFF DUP2 GT ISZERO PUSH2 0x9C1 JUMPI PUSH1 0x0 DUP1 REVERT JUMPDEST PUSH1 0x20 DUP4 ADD SWAP2 POP DUP4 PUSH1 0x1 DUP3 MUL DUP4 ADD GT ISZERO PUSH2 0x9D9 JUMPI PUSH1 0x0 DUP1 REVERT JUMPDEST SWAP3 POP SWAP3 SWAP1 POP JUMP JUMPDEST PUSH1 0x0 DUP2 CALLDATALOAD SWAP1 POP PUSH2 0x9EF DUP2 PUSH2 0xF4F JUMP JUMPDEST SWAP3 SWAP2 POP POP JUMP JUMPDEST PUSH1 0x0 PUSH1 0x20 DUP3 DUP5 SUB SLT ISZERO PUSH2 0xA07 JUMPI PUSH1 0x0 DUP1 REVERT JUMPDEST PUSH1 0x0 PUSH2 0xA15 DUP5 DUP3 DUP6 ADD PUSH2 0x981 JUMP JUMPDEST SWAP2 POP POP SWAP3 SWAP2 POP POP JUMP JUMPDEST PUSH1 0x0 DUP1 PUSH1 0x20 DUP4 DUP6 SUB SLT ISZERO PUSH2 0xA31 JUMPI PUSH1 0x0 DUP1 REVERT JUMPDEST PUSH1 0x0 DUP4 ADD CALLDATALOAD PUSH8 0xFFFFFFFFFFFFFFFF DUP2 GT ISZERO PUSH2 0xA4B JUMPI PUSH1 0x0 DUP1 REVERT JUMPDEST PUSH2 0xA57 DUP6 DUP3 DUP7 ADD PUSH2 0x996 JUMP JUMPDEST SWAP3 POP SWAP3 POP POP SWAP3 POP SWAP3 SWAP1 POP JUMP JUMPDEST PUSH1 0x0 PUSH1 0x20 DUP3 DUP5 SUB SLT ISZERO PUSH2 0xA75 JUMPI PUSH1 0x0 DUP1 REVERT JUMPDEST PUSH1 0x0 PUSH2 0xA83 DUP5 DUP3 DUP6 ADD PUSH2 0x9E0 JUMP JUMPDEST SWAP2 POP POP SWAP3 SWAP2 POP POP JUMP JUMPDEST PUSH2 0xA95 DUP2 PUSH2 0xDC4 JUMP JUMPDEST DUP3 MSTORE POP POP JUMP JUMPDEST PUSH2 0xAA4 DUP2 PUSH2 0xDD6 JUMP JUMPDEST DUP3 MSTORE POP POP JUMP JUMPDEST PUSH1 0x0 PUSH2 0xAB6 DUP4 DUP6 PUSH2 0xDB3 JUMP JUMPDEST SWAP4 POP PUSH2 0xAC3 DUP4 DUP6 DUP5 PUSH2 0xE0C JUMP JUMPDEST PUSH2 0xACC DUP4 PUSH2 0xF27 JUMP JUMPDEST DUP5 ADD SWAP1 POP SWAP4 SWAP3 POP POP POP JUMP JUMPDEST PUSH1 0x0 PUSH2 0xAE2 DUP3 PUSH2 0xDA8 JUMP JUMPDEST PUSH2 0xAEC DUP2 DUP6 PUSH2 0xDB3 JUMP JUMPDEST SWAP4 POP PUSH2 0xAFC DUP2 DUP6 PUSH1 0x20 DUP7 ADD PUSH2 0xE1B JUMP JUMPDEST PUSH2 0xB05 DUP2 PUSH2 0xF27 JUMP JUMPDEST DUP5 ADD SWAP2 POP POP SWAP3 SWAP2 POP POP JUMP JUMPDEST PUSH1 0x0 PUSH2 0xB1D PUSH1 0x25 DUP4 PUSH2 0xDB3 JUMP JUMPDEST SWAP2 POP PUSH32 0x4F6E6C7920746865206F776E65722063616E2063616C6C20746869732066756E PUSH1 0x0 DUP4 ADD MSTORE PUSH32 0x6374696F6E000000000000000000000000000000000000000000000000000000 PUSH1 0x20 DUP4 ADD MSTORE PUSH1 0x40 DUP3 ADD SWAP1 POP SWAP2 SWAP1 POP JUMP JUMPDEST PUSH1 0x0 PUSH2 0xB83 PUSH1 0x14 DUP4 PUSH2 0xDB3 JUMP JUMPDEST SWAP2 POP PUSH32 0x496E76616C69642063616E646964617465204944000000000000000000000000 PUSH1 0x0 DUP4 ADD MSTORE PUSH1 0x20 DUP3 ADD SWAP1 POP SWAP2 SWAP1 POP JUMP JUMPDEST PUSH1 0x0 PUSH2 0xBC3 PUSH1 0x20 DUP4 PUSH2 0xDB3 JUMP JUMPDEST SWAP2 POP PUSH32 0x4E6577206F776E65722063616E6E6F74206265207A65726F2061646472657373 PUSH1 0x0 DUP4 ADD MSTORE PUSH1 0x20 DUP3 ADD SWAP1 POP SWAP2 SWAP1 POP JUMP JUMPDEST PUSH1 0x0 PUSH2 0xC03 PUSH1 0x16 DUP4 PUSH2 0xDB3 JUMP JUMPDEST SWAP2 POP PUSH32 0x596F75206861766520616C726561647920766F74656400000000000000000000 PUSH1 0x0 DUP4 ADD MSTORE PUSH1 0x20 DUP3 ADD SWAP1 POP SWAP2 SWAP1 POP JUMP JUMPDEST PUSH2 0xC3F DUP2 PUSH2 0xE02 JUMP JUMPDEST DUP3 MSTORE POP POP JUMP JUMPDEST PUSH1 0x0 PUSH1 0x20 DUP3 ADD SWAP1 POP PUSH2 0xC5A PUSH1 0x0 DUP4 ADD DUP5 PUSH2 0xA8C JUMP JUMPDEST SWAP3 SWAP2 POP POP JUMP JUMPDEST PUSH1 0x0 PUSH1 0x20 DUP3 ADD SWAP1 POP PUSH2 0xC75 PUSH1 0x0 DUP4 ADD DUP5 PUSH2 0xA9B JUMP JUMPDEST SWAP3 SWAP2 POP POP JUMP JUMPDEST PUSH1 0x0 PUSH1 0x20 DUP3 ADD SWAP1 POP DUP2 DUP2 SUB PUSH1 0x0 DUP4 ADD MSTORE PUSH2 0xC96 DUP2 DUP5 DUP7 PUSH2 0xAAA JUMP JUMPDEST SWAP1 POP SWAP4 SWAP3 POP POP POP JUMP JUMPDEST PUSH1 0x0 PUSH1 0x40 DUP3 ADD SWAP1 POP DUP2 DUP2 SUB PUSH1 0x0 DUP4 ADD MSTORE PUSH2 0xCB9 DUP2 DUP6 PUSH2 0xAD7 JUMP JUMPDEST SWAP1 POP PUSH2 0xCC8 PUSH1 0x20 DUP4 ADD DUP5 PUSH2 0xC36 JUMP JUMPDEST SWAP4 SWAP3 POP POP POP JUMP JUMPDEST PUSH1 0x0 PUSH1 0x20 DUP3 ADD SWAP1 POP DUP2 DUP2 SUB PUSH1 0x0 DUP4 ADD MSTORE PUSH2 0xCE8 DUP2 PUSH2 0xB10 JUMP JUMPDEST SWAP1 POP SWAP2 SWAP1 POP JUMP JUMPDEST PUSH1 0x0 PUSH1 0x20 DUP3 ADD SWAP1 POP DUP2 DUP2 SUB PUSH1 0x0 DUP4 ADD MSTORE PUSH2 0xD08 DUP2 PUSH2 0xB76 JUMP JUMPDEST SWAP1 POP SWAP2 SWAP1 POP JUMP JUMPDEST PUSH1 0x0 PUSH1 0x20 DUP3 ADD SWAP1 POP DUP2 DUP2 SUB PUSH1 0x0 DUP4 ADD MSTORE PUSH2 0xD28 DUP2 PUSH2 0xBB6 JUMP JUMPDEST SWAP1 POP SWAP2 SWAP1 POP JUMP JUMPDEST PUSH1 0x0 PUSH1 0x20 DUP3 ADD SWAP1 POP DUP2 DUP2 SUB PUSH1 0x0 DUP4 ADD MSTORE PUSH2 0xD48 DUP2 PUSH2 0xBF6 JUMP JUMPDEST SWAP1 POP SWAP2 SWAP1 POP JUMP JUMPDEST PUSH1 0x0 PUSH1 0x20 DUP3 ADD SWAP1 POP PUSH2 0xD64 PUSH1 0x0 DUP4 ADD DUP5 PUSH2 0xC36 JUMP JUMPDEST SWAP3 SWAP2 POP POP JUMP JUMPDEST PUSH1 0x0 PUSH1 0x60 DUP3 ADD SWAP1 POP PUSH2 0xD7F PUSH1 0x0 DUP4 ADD DUP7 PUSH2 0xC36 JUMP JUMPDEST DUP2 DUP2 SUB PUSH1 0x20 DUP4 ADD MSTORE PUSH2 0xD91 DUP2 DUP6 PUSH2 0xAD7 JUMP JUMPDEST SWAP1 POP PUSH2 0xDA0 PUSH1 0x40 DUP4 ADD DUP5 PUSH2 0xC36 JUMP JUMPDEST SWAP5 SWAP4 POP POP POP POP JUMP JUMPDEST PUSH1 0x0 DUP2 MLOAD SWAP1 POP SWAP2 SWAP1 POP JUMP JUMPDEST PUSH1 0x0 DUP3 DUP3 MSTORE PUSH1 0x20 DUP3 ADD SWAP1 POP SWAP3 SWAP2 POP POP JUMP JUMPDEST PUSH1 0x0 PUSH2 0xDCF DUP3 PUSH2 0xDE2 JUMP JUMPDEST SWAP1 POP SWAP2 SWAP1 POP JUMP JUMPDEST PUSH1 0x0 DUP2 ISZERO ISZERO SWAP1 POP SWAP2 SWAP1 POP JUMP JUMPDEST PUSH1 0x0 PUSH20 0xFFFFFFFFFFFFFFFFFFFFFFFFFFFFFFFFFFFFFFFF DUP3 AND SWAP1 POP SWAP2 SWAP1 POP JUMP JUMPDEST PUSH1 0x0 DUP2 SWAP1 POP SWAP2 SWAP1 POP JUMP JUMPDEST DUP3 DUP2 DUP4 CALLDATACOPY PUSH1 0x0 DUP4 DUP4 ADD MSTORE POP POP POP JUMP JUMPDEST PUSH1 0x0 JUMPDEST DUP4 DUP2 LT ISZERO PUSH2 0xE39 JUMPI DUP1 DUP3 ADD MLOAD DUP2 DUP5 ADD MSTORE PUSH1 0x20 DUP2 ADD SWAP1 POP PUSH2 0xE1E JUMP JUMPDEST DUP4 DUP2 GT ISZERO PUSH2 0xE48 JUMPI PUSH1 0x0 DUP5 DUP5 ADD MSTORE JUMPDEST POP POP POP POP JUMP JUMPDEST PUSH1 0x0 PUSH1 0x2 DUP3 DIV SWAP1 POP PUSH1 0x1 DUP3 AND DUP1 PUSH2 0xE66 JUMPI PUSH1 0x7F DUP3 AND SWAP2 POP JUMPDEST PUSH1 0x20 DUP3 LT DUP2 EQ ISZERO PUSH2 0xE7A JUMPI PUSH2 0xE79 PUSH2 0xEF8 JUMP JUMPDEST JUMPDEST POP SWAP2 SWAP1 POP JUMP JUMPDEST PUSH1 0x0 PUSH2 0xE8B DUP3 PUSH2 0xE02 JUMP JUMPDEST SWAP2 POP PUSH32 0xFFFFFFFFFFFFFFFFFFFFFFFFFFFFFFFFFFFFFFFFFFFFFFFFFFFFFFFFFFFFFFFF DUP3 EQ ISZERO PUSH2 0xEBE JUMPI PUSH2 0xEBD PUSH2 0xEC9 JUMP JUMPDEST JUMPDEST PUSH1 0x1 DUP3 ADD SWAP1 POP SWAP2 SWAP1 POP JUMP JUMPDEST PUSH32 0x4E487B7100000000000000000000000000000000000000000000000000000000 PUSH1 0x0 MSTORE PUSH1 0x11 PUSH1 0x4 MSTORE PUSH1 0x24 PUSH1 0x0 REVERT JUMPDEST PUSH32 0x4E487B7100000000000000000000000000000000000000000000000000000000 PUSH1 0x0 MSTORE PUSH1 0x22 PUSH1 0x4 MSTORE PUSH1 0x24 PUSH1 0x0 REVERT JUMPDEST PUSH1 0x0 PUSH1 0x1F NOT PUSH1 0x1F DUP4 ADD AND SWAP1 POP SWAP2 SWAP1 POP JUMP JUMPDEST PUSH2 0xF41 DUP2 PUSH2 0xDC4 JUMP JUMPDEST DUP2 EQ PUSH2 0xF4C JUMPI PUSH1 0x0 DUP1 REVERT JUMPDEST POP JUMP JUMPDEST PUSH2 0xF58 DUP2 PUSH2 0xE02 JUMP JUMPDEST DUP2 EQ PUSH2 0xF63 JUMPI PUSH1 0x0 DUP1 REVERT JUMPDEST POP JUMP INVALID LOG2 PUSH5 0x6970667358 0x22 SLT KECCAK256 0xAD PUSH31 0xE4F8E1E8BD9A7FBFF50671D711A2B046C1042C9C2B963853C246F4F200CA64 PUSH20 0x6F6C634300080000330000000000000000000000 "
				},
				"gasEstimates": {
					"creation": {
						"codeDepositCost": "799200",
						"executionCost": "21697",
						"totalCost": "820897"
					},
					"external": {
						"addCandidate(string)": "infinite",
						"candidates(uint256)": "infinite",
						"candidatesCount()": "1174",
						"getCandidate(uint256)": "infinite",
						"getTotalCandidates()": "1160",
						"owner()": "1255",
						"transferOwnership(address)": "24693",
						"vote(uint256)": "infinite",
						"voters(address)": "1611"
					}
				},
				"methodIdentifiers": {
					"addCandidate(string)": "462e91ec",
					"candidates(uint256)": "3477ee2e",
					"candidatesCount()": "2d35a8a2",
					"getCandidate(uint256)": "35b8e820",
					"getTotalCandidates()": "0deb56ab",
					"owner()": "8da5cb5b",
					"transferOwnership(address)": "f2fde38b",
					"vote(uint256)": "0121b93f",
					"voters(address)": "a3ec138d"
				}
			},
			"storageLayout": {
				"storage": [
					{
						"astId": 3,
						"contract": "Votting.sol:VotingSystem",
						"label": "owner",
						"offset": 0,
						"slot": "0",
						"type": "t_address"
					},
					{
						"astId": 72,
						"contract": "Votting.sol:VotingSystem",
						"label": "candidates",
						"offset": 0,
						"slot": "1",
						"type": "t_mapping(t_uint256,t_struct(Candidate)67_storage)"
					},
					{
						"astId": 76,
						"contract": "Votting.sol:VotingSystem",
						"label": "voters",
						"offset": 0,
						"slot": "2",
						"type": "t_mapping(t_address,t_bool)"
					},
					{
						"astId": 78,
						"contract": "Votting.sol:VotingSystem",
						"label": "candidatesCount",
						"offset": 0,
						"slot": "3",
						"type": "t_uint256"
					}
				],
				"types": {
					"t_address": {
						"encoding": "inplace",
						"label": "address",
						"numberOfBytes": "20"
					},
					"t_bool": {
						"encoding": "inplace",
						"label": "bool",
						"numberOfBytes": "1"
					},
					"t_mapping(t_address,t_bool)": {
						"encoding": "mapping",
						"key": "t_address",
						"label": "mapping(address => bool)",
						"numberOfBytes": "32",
						"value": "t_bool"
					},
					"t_mapping(t_uint256,t_struct(Candidate)67_storage)": {
						"encoding": "mapping",
						"key": "t_uint256",
						"label": "mapping(uint256 => struct VotingSystem.Candidate)",
						"numberOfBytes": "32",
						"value": "t_struct(Candidate)67_storage"
					},
					"t_string_storage": {
						"encoding": "bytes",
						"label": "string",
						"numberOfBytes": "32"
					},
					"t_struct(Candidate)67_storage": {
						"encoding": "inplace",
						"label": "struct VotingSystem.Candidate",
						"members": [
							{
								"astId": 62,
								"contract": "Votting.sol:VotingSystem",
								"label": "id",
								"offset": 0,
								"slot": "0",
								"type": "t_uint256"
							},
							{
								"astId": 64,
								"contract": "Votting.sol:VotingSystem",
								"label": "name",
								"offset": 0,
								"slot": "1",
								"type": "t_string_storage"
							},
							{
								"astId": 66,
								"contract": "Votting.sol:VotingSystem",
								"label": "voteCount",
								"offset": 0,
								"slot": "2",
								"type": "t_uint256"
							}
						],
						"numberOfBytes": "96"
					},
					"t_uint256": {
						"encoding": "inplace",
						"label": "uint256",
						"numberOfBytes": "32"
					}
				}
			},
			"userdoc": {
				"kind": "user",
				"methods": {},
				"version": 1
			}
		}
	}
}